{
  "contractName": "SupplyChain",
  "abi": [
    {
      "anonymous": false,
      "inputs": [
        {
          "indexed": false,
          "internalType": "uint256",
          "name": "parcelId",
          "type": "uint256"
        },
        {
          "indexed": false,
          "internalType": "uint256",
          "name": "checkpoint",
          "type": "uint256"
        },
        {
          "indexed": false,
          "internalType": "uint256",
          "name": "blockNumber",
          "type": "uint256"
        }
      ],
      "name": "CheckpointCompleted",
      "type": "event"
    },
    {
      "anonymous": false,
      "inputs": [
        {
          "indexed": false,
          "internalType": "uint256",
          "name": "parcelId",
          "type": "uint256"
        }
      ],
      "name": "ParcelLost",
      "type": "event"
    },
    {
      "anonymous": false,
      "inputs": [
        {
          "indexed": false,
          "internalType": "uint256",
          "name": "parcelId",
          "type": "uint256"
        },
        {
          "indexed": false,
          "internalType": "string",
          "name": "name",
          "type": "string"
        },
        {
          "indexed": false,
          "internalType": "address",
          "name": "owner",
          "type": "address"
        }
      ],
      "name": "ParcelRegistered",
      "type": "event"
    },
    {
      "anonymous": false,
      "inputs": [
        {
          "indexed": false,
          "internalType": "uint256",
          "name": "parcelId",
          "type": "uint256"
        },
        {
          "indexed": false,
          "internalType": "address",
          "name": "from",
          "type": "address"
        },
        {
          "indexed": false,
          "internalType": "address",
          "name": "to",
          "type": "address"
        },
        {
          "indexed": false,
          "internalType": "uint256",
          "name": "checkpoint",
          "type": "uint256"
        }
      ],
      "name": "ParcelTransferred",
      "type": "event"
    },
    {
      "inputs": [],
      "name": "nextParcelId",
      "outputs": [
        {
          "internalType": "uint256",
          "name": "",
          "type": "uint256"
        }
      ],
      "stateMutability": "view",
      "type": "function",
      "constant": true
    },
    {
      "inputs": [
        {
          "internalType": "uint256",
          "name": "",
          "type": "uint256"
        }
      ],
      "name": "parcels",
      "outputs": [
        {
          "internalType": "uint256",
          "name": "id",
          "type": "uint256"
        },
        {
          "internalType": "string",
          "name": "name",
          "type": "string"
        },
        {
          "internalType": "string",
          "name": "description",
          "type": "string"
        },
        {
          "internalType": "string",
          "name": "location",
          "type": "string"
        },
        {
          "internalType": "string",
          "name": "service",
          "type": "string"
        },
        {
          "internalType": "address",
          "name": "currentOwner",
          "type": "address"
        },
        {
          "internalType": "bool",
          "name": "isLost",
          "type": "bool"
        },
        {
          "internalType": "uint256",
          "name": "checkpointCount",
          "type": "uint256"
        },
        {
          "internalType": "uint256",
          "name": "code",
          "type": "uint256"
        },
        {
          "internalType": "uint256",
          "name": "latestCheckpoint",
          "type": "uint256"
        }
      ],
      "stateMutability": "view",
      "type": "function",
      "constant": true
    },
    {
      "inputs": [
        {
          "internalType": "string",
          "name": "name",
          "type": "string"
        },
        {
          "internalType": "string",
          "name": "description",
          "type": "string"
        },
        {
          "internalType": "string",
          "name": "location",
          "type": "string"
        },
        {
          "internalType": "string",
          "name": "service",
          "type": "string"
        },
        {
          "internalType": "uint256",
          "name": "numCheckpoints",
          "type": "uint256"
        },
        {
          "internalType": "string[]",
          "name": "locations",
          "type": "string[]"
        }
      ],
      "name": "registerParcel",
      "outputs": [],
      "stateMutability": "nonpayable",
      "type": "function"
    },
    {
      "inputs": [
        {
          "internalType": "uint256",
          "name": "parcelId",
          "type": "uint256"
        },
        {
          "internalType": "uint256",
          "name": "checkpoint",
          "type": "uint256"
        }
      ],
      "name": "transferParcel",
      "outputs": [],
      "stateMutability": "nonpayable",
      "type": "function"
    },
    {
      "inputs": [
        {
          "internalType": "uint256",
          "name": "parcelId",
          "type": "uint256"
        }
      ],
      "name": "reportParcelLost",
      "outputs": [],
      "stateMutability": "nonpayable",
      "type": "function"
    },
    {
      "inputs": [
        {
          "internalType": "uint256",
          "name": "parcelId",
          "type": "uint256"
        }
      ],
      "name": "getParcelHistory",
      "outputs": [
        {
          "internalType": "address[]",
          "name": "",
          "type": "address[]"
        }
      ],
      "stateMutability": "view",
      "type": "function",
      "constant": true
    },
    {
      "inputs": [
        {
          "internalType": "uint256",
          "name": "parcelId",
          "type": "uint256"
        }
      ],
      "name": "getParcelDetails",
      "outputs": [
        {
          "internalType": "uint256",
          "name": "id",
          "type": "uint256"
        },
        {
          "internalType": "uint256",
          "name": "latestCheckpoint",
          "type": "uint256"
        },
        {
          "internalType": "string",
          "name": "name",
          "type": "string"
        },
        {
          "internalType": "string",
          "name": "description",
          "type": "string"
        },
        {
          "internalType": "string",
          "name": "location",
          "type": "string"
        },
        {
          "internalType": "string",
          "name": "service",
          "type": "string"
        },
        {
          "internalType": "uint256",
          "name": "checkpointCount",
          "type": "uint256"
        },
        {
          "internalType": "string[]",
          "name": "allLocations",
          "type": "string[]"
        }
      ],
      "stateMutability": "view",
      "type": "function",
      "constant": true
    },
    {
      "inputs": [
        {
          "internalType": "uint256",
          "name": "parcelId",
          "type": "uint256"
        }
      ],
      "name": "getNextLocation",
      "outputs": [
        {
          "internalType": "string",
          "name": "",
          "type": "string"
        }
      ],
      "stateMutability": "view",
      "type": "function",
      "constant": true
    },
    {
      "inputs": [],
      "name": "getParcelCount",
      "outputs": [
        {
          "internalType": "uint256",
          "name": "",
          "type": "uint256"
        }
      ],
      "stateMutability": "view",
      "type": "function",
      "constant": true
    },
    {
      "inputs": [],
      "name": "getCode",
      "outputs": [
        {
          "internalType": "uint256",
          "name": "",
          "type": "uint256"
        }
      ],
      "stateMutability": "view",
      "type": "function",
      "constant": true
    }
  ],
  "bytecode": "0x608060405234801561001057600080fd5b50612196806100206000396000f3fe608060405234801561001057600080fd5b506004361061009e5760003560e01c8063ac4344cf11610066578063ac4344cf14610164578063c5d3823714610180578063d66715d6146101b0578063e10c3254146101e7578063ea879634146102035761009e565b806339108982146100a357806352a7494d146100d3578063950c71d8146100f1578063a0fa8ede1461010f578063a72eca0914610148575b600080fd5b6100bd60048036038101906100b89190611108565b610221565b6040516100ca9190611225565b60405180910390f35b6100db6102c4565b6040516100e89190611256565b60405180910390f35b6100f96102ce565b6040516101069190611256565b60405180910390f35b61012960048036038101906101249190611108565b6102d4565b60405161013f9a9998979695949392919061132b565b60405180910390f35b610162600480360381019061015d91906115fe565b610575565b005b61017e60048036038101906101799190611717565b6107b5565b005b61019a60048036038101906101959190611108565b61099e565b6040516101a79190611757565b60405180910390f35b6101ca60048036038101906101c59190611108565b610ac3565b6040516101de989796959493929190611885565b60405180910390f35b61020160048036038101906101fc9190611108565b610eba565b005b61020b610fba565b6040516102189190611256565b60405180910390f35b60606000808381526020019081526020016000206006018054806020026020016040519081016040528092919081815260200182805480156102b857602002820191906000526020600020905b8160009054906101000a900473ffffffffffffffffffffffffffffffffffffffff1673ffffffffffffffffffffffffffffffffffffffff168152602001906001019080831161026e575b50505050509050919050565b6000600154905090565b60015481565b60006020528060005260406000206000915090508060000154908060010180546102fd90611955565b80601f016020809104026020016040519081016040528092919081815260200182805461032990611955565b80156103765780601f1061034b57610100808354040283529160200191610376565b820191906000526020600020905b81548152906001019060200180831161035957829003601f168201915b50505050509080600201805461038b90611955565b80601f01602080910402602001604051908101604052809291908181526020018280546103b790611955565b80156104045780601f106103d957610100808354040283529160200191610404565b820191906000526020600020905b8154815290600101906020018083116103e757829003601f168201915b50505050509080600301805461041990611955565b80601f016020809104026020016040519081016040528092919081815260200182805461044590611955565b80156104925780601f1061046757610100808354040283529160200191610492565b820191906000526020600020905b81548152906001019060200180831161047557829003601f168201915b5050505050908060040180546104a790611955565b80601f01602080910402602001604051908101604052809291908181526020018280546104d390611955565b80156105205780601f106104f557610100808354040283529160200191610520565b820191906000526020600020905b81548152906001019060200180831161050357829003601f168201915b5050505050908060050160009054906101000a900473ffffffffffffffffffffffffffffffffffffffff16908060070160009054906101000a900460ff169080600801549080600a01549080600b015490508a565b818151146105b8576040517f08c379a00000000000000000000000000000000000000000000000000000000081526004016105af906119f8565b60405180910390fd5b6000806000600154815260200190815260200160002090506001548160000181905550868160010190816105ec9190611bc4565b50858160020190816105fe9190611bc4565b50848160030190816106109190611bc4565b50838160040190816106229190611bc4565b50338160050160006101000a81548173ffffffffffffffffffffffffffffffffffffffff021916908373ffffffffffffffffffffffffffffffffffffffff16021790555080600601339080600181540180825580915050600190039060005260206000200160009091909190916101000a81548173ffffffffffffffffffffffffffffffffffffffff021916908373ffffffffffffffffffffffffffffffffffffffff16021790555060008160070160006101000a81548160ff02191690831515021790555082816008018190555081816009019080519060200190610709929190610fe4565b5061271042443360405160200161072293929190611cff565b6040516020818303038152906040528051906020012060001c6107459190611d6b565b81600a0181905550600081600b01819055507fe1f789bdc940834eb233dd246835f12cc939d8dc0149a8591045425c026e19a8600154883360405161078c93929190611d9c565b60405180910390a1600160008154809291906107a790611e09565b919050555050505050505050565b600080600084815260200190815260200160002090508060070160009054906101000a900460ff161561081d576040517f08c379a000000000000000000000000000000000000000000000000000000000815260040161081490611e9d565b60405180910390fd5b600082118015610831575080600801548211155b610870576040517f08c379a000000000000000000000000000000000000000000000000000000000815260040161086790611f09565b60405180910390fd5b8181600b018190555080600601339080600181540180825580915050600190039060005260206000200160009091909190916101000a81548173ffffffffffffffffffffffffffffffffffffffff021916908373ffffffffffffffffffffffffffffffffffffffff160217905550338160050160006101000a81548173ffffffffffffffffffffffffffffffffffffffff021916908373ffffffffffffffffffffffffffffffffffffffff1602179055507f3b9f11f11a6ed3d40670eb3c2f49e38cafc9a96d8ba3ff8dd2cf1044cded548583834360405161095493929190611f29565b60405180910390a17fb7bc84a8dff11bcd1bbcbd04c2d9723be3328d320c0f09d9b30a6d5b0688274c833333856040516109919493929190611f60565b60405180910390a1505050565b6060600080600084815260200190815260200160002090506000600182600b01546109c99190611fa5565b905081600801548110610a11576040517f08c379a0000000000000000000000000000000000000000000000000000000008152600401610a0890611f09565b60405180910390fd5b816009018181548110610a2757610a26611fd9565b5b906000526020600020018054610a3c90611955565b80601f0160208091040260200160405190810160405280929190818152602001828054610a6890611955565b8015610ab55780601f10610a8a57610100808354040283529160200191610ab5565b820191906000526020600020905b815481529060010190602001808311610a9857829003601f168201915b505050505092505050919050565b6000806060806060806000606060008060008b815260200190815260200160002090508060050160009054906101000a900473ffffffffffffffffffffffffffffffffffffffff1673ffffffffffffffffffffffffffffffffffffffff163373ffffffffffffffffffffffffffffffffffffffff1614610b78576040517f08c379a0000000000000000000000000000000000000000000000000000000008152600401610b6f9061207a565b60405180910390fd5b806000015481600b015482600101836002018460030185600401866008015487600901858054610ba790611955565b80601f0160208091040260200160405190810160405280929190818152602001828054610bd390611955565b8015610c205780601f10610bf557610100808354040283529160200191610c20565b820191906000526020600020905b815481529060010190602001808311610c0357829003601f168201915b50505050509550848054610c3390611955565b80601f0160208091040260200160405190810160405280929190818152602001828054610c5f90611955565b8015610cac5780601f10610c8157610100808354040283529160200191610cac565b820191906000526020600020905b815481529060010190602001808311610c8f57829003601f168201915b50505050509450838054610cbf90611955565b80601f0160208091040260200160405190810160405280929190818152602001828054610ceb90611955565b8015610d385780601f10610d0d57610100808354040283529160200191610d38565b820191906000526020600020905b815481529060010190602001808311610d1b57829003601f168201915b50505050509350828054610d4b90611955565b80601f0160208091040260200160405190810160405280929190818152602001828054610d7790611955565b8015610dc45780601f10610d9957610100808354040283529160200191610dc4565b820191906000526020600020905b815481529060010190602001808311610da757829003601f168201915b5050505050925080805480602002602001604051908101604052809291908181526020016000905b82821015610e98578382906000526020600020018054610e0b90611955565b80601f0160208091040260200160405190810160405280929190818152602001828054610e3790611955565b8015610e845780601f10610e5957610100808354040283529160200191610e84565b820191906000526020600020905b815481529060010190602001808311610e6757829003601f168201915b505050505081526020019060010190610dec565b5050505090509850985098509850985098509850985050919395975091939597565b600080600083815260200190815260200160002090508060050160009054906101000a900473ffffffffffffffffffffffffffffffffffffffff1673ffffffffffffffffffffffffffffffffffffffff163373ffffffffffffffffffffffffffffffffffffffff1614610f62576040517f08c379a0000000000000000000000000000000000000000000000000000000008152600401610f599061210c565b60405180910390fd5b60018160070160006101000a81548160ff0219169083151502179055507f6196b5a3e49e3b84c16fbc89f00fb1f25fdf80b1cf2f5e7a7b36e10136b85dac82604051610fae9190611256565b60405180910390a15050565b600080600060018054610fcd919061212c565b8152602001908152602001600020600a0154905090565b82805482825590600052602060002090810192821561102c579160200282015b8281111561102b57825182908161101b9190611bc4565b5091602001919060010190611004565b5b509050611039919061103d565b5090565b5b8082111561105d57600081816110549190611061565b5060010161103e565b5090565b50805461106d90611955565b6000825580601f1061107f575061109e565b601f01602090049060005260206000209081019061109d91906110a1565b5b50565b5b808211156110ba5760008160009055506001016110a2565b5090565b6000604051905090565b600080fd5b600080fd5b6000819050919050565b6110e5816110d2565b81146110f057600080fd5b50565b600081359050611102816110dc565b92915050565b60006020828403121561111e5761111d6110c8565b5b600061112c848285016110f3565b91505092915050565b600081519050919050565b600082825260208201905092915050565b6000819050602082019050919050565b600073ffffffffffffffffffffffffffffffffffffffff82169050919050565b600061118c82611161565b9050919050565b61119c81611181565b82525050565b60006111ae8383611193565b60208301905092915050565b6000602082019050919050565b60006111d282611135565b6111dc8185611140565b93506111e783611151565b8060005b838110156112185781516111ff88826111a2565b975061120a836111ba565b9250506001810190506111eb565b5085935050505092915050565b6000602082019050818103600083015261123f81846111c7565b905092915050565b611250816110d2565b82525050565b600060208201905061126b6000830184611247565b92915050565b600081519050919050565b600082825260208201905092915050565b60005b838110156112ab578082015181840152602081019050611290565b60008484015250505050565b6000601f19601f8301169050919050565b60006112d382611271565b6112dd818561127c565b93506112ed81856020860161128d565b6112f6816112b7565b840191505092915050565b61130a81611181565b82525050565b60008115159050919050565b61132581611310565b82525050565b600061014082019050611341600083018d611247565b8181036020830152611353818c6112c8565b90508181036040830152611367818b6112c8565b9050818103606083015261137b818a6112c8565b9050818103608083015261138f81896112c8565b905061139e60a0830188611301565b6113ab60c083018761131c565b6113b860e0830186611247565b6113c6610100830185611247565b6113d4610120830184611247565b9b9a5050505050505050505050565b600080fd5b600080fd5b7f4e487b7100000000000000000000000000000000000000000000000000000000600052604160045260246000fd5b611425826112b7565b810181811067ffffffffffffffff82111715611444576114436113ed565b5b80604052505050565b60006114576110be565b9050611463828261141c565b919050565b600067ffffffffffffffff821115611483576114826113ed565b5b61148c826112b7565b9050602081019050919050565b82818337600083830152505050565b60006114bb6114b684611468565b61144d565b9050828152602081018484840111156114d7576114d66113e8565b5b6114e2848285611499565b509392505050565b600082601f8301126114ff576114fe6113e3565b5b813561150f8482602086016114a8565b91505092915050565b600067ffffffffffffffff821115611533576115326113ed565b5b602082029050602081019050919050565b600080fd5b600061155c61155784611518565b61144d565b9050808382526020820190506020840283018581111561157f5761157e611544565b5b835b818110156115c657803567ffffffffffffffff8111156115a4576115a36113e3565b5b8086016115b189826114ea565b85526020850194505050602081019050611581565b5050509392505050565b600082601f8301126115e5576115e46113e3565b5b81356115f5848260208601611549565b91505092915050565b60008060008060008060c0878903121561161b5761161a6110c8565b5b600087013567ffffffffffffffff811115611639576116386110cd565b5b61164589828a016114ea565b965050602087013567ffffffffffffffff811115611666576116656110cd565b5b61167289828a016114ea565b955050604087013567ffffffffffffffff811115611693576116926110cd565b5b61169f89828a016114ea565b945050606087013567ffffffffffffffff8111156116c0576116bf6110cd565b5b6116cc89828a016114ea565b93505060806116dd89828a016110f3565b92505060a087013567ffffffffffffffff8111156116fe576116fd6110cd565b5b61170a89828a016115d0565b9150509295509295509295565b6000806040838503121561172e5761172d6110c8565b5b600061173c858286016110f3565b925050602061174d858286016110f3565b9150509250929050565b6000602082019050818103600083015261177181846112c8565b905092915050565b600081519050919050565b600082825260208201905092915050565b6000819050602082019050919050565b600082825260208201905092915050565b60006117c182611271565b6117cb81856117a5565b93506117db81856020860161128d565b6117e4816112b7565b840191505092915050565b60006117fb83836117b6565b905092915050565b6000602082019050919050565b600061181b82611779565b6118258185611784565b93508360208202850161183785611795565b8060005b85811015611873578484038952815161185485826117ef565b945061185f83611803565b925060208a0199505060018101905061183b565b50829750879550505050505092915050565b60006101008201905061189b600083018b611247565b6118a8602083018a611247565b81810360408301526118ba81896112c8565b905081810360608301526118ce81886112c8565b905081810360808301526118e281876112c8565b905081810360a08301526118f681866112c8565b905061190560c0830185611247565b81810360e08301526119178184611810565b90509998505050505050505050565b7f4e487b7100000000000000000000000000000000000000000000000000000000600052602260045260246000fd5b6000600282049050600182168061196d57607f821691505b6020821081036119805761197f611926565b5b50919050565b7f4c6f636174696f6e73206c656e677468206d757374206d61746368206e756d6260008201527f6572206f6620636865636b706f696e7473000000000000000000000000000000602082015250565b60006119e260318361127c565b91506119ed82611986565b604082019050919050565b60006020820190508181036000830152611a11816119d5565b9050919050565b60008190508160005260206000209050919050565b60006020601f8301049050919050565b600082821b905092915050565b600060088302611a7a7fffffffffffffffffffffffffffffffffffffffffffffffffffffffffffffffff82611a3d565b611a848683611a3d565b95508019841693508086168417925050509392505050565b6000819050919050565b6000611ac1611abc611ab7846110d2565b611a9c565b6110d2565b9050919050565b6000819050919050565b611adb83611aa6565b611aef611ae782611ac8565b848454611a4a565b825550505050565b600090565b611b04611af7565b611b0f818484611ad2565b505050565b5b81811015611b3357611b28600082611afc565b600181019050611b15565b5050565b601f821115611b7857611b4981611a18565b611b5284611a2d565b81016020851015611b61578190505b611b75611b6d85611a2d565b830182611b14565b50505b505050565b600082821c905092915050565b6000611b9b60001984600802611b7d565b1980831691505092915050565b6000611bb48383611b8a565b9150826002028217905092915050565b611bcd82611271565b67ffffffffffffffff811115611be657611be56113ed565b5b611bf08254611955565b611bfb828285611b37565b600060209050601f831160018114611c2e5760008415611c1c578287015190505b611c268582611ba8565b865550611c8e565b601f198416611c3c86611a18565b60005b82811015611c6457848901518255600182019150602085019450602081019050611c3f565b86831015611c815784890151611c7d601f891682611b8a565b8355505b6001600288020188555050505b505050505050565b6000819050919050565b611cb1611cac826110d2565b611c96565b82525050565b60008160601b9050919050565b6000611ccf82611cb7565b9050919050565b6000611ce182611cc4565b9050919050565b611cf9611cf482611181565b611cd6565b82525050565b6000611d0b8286611ca0565b602082019150611d1b8285611ca0565b602082019150611d2b8284611ce8565b601482019150819050949350505050565b7f4e487b7100000000000000000000000000000000000000000000000000000000600052601260045260246000fd5b6000611d76826110d2565b9150611d81836110d2565b925082611d9157611d90611d3c565b5b828206905092915050565b6000606082019050611db16000830186611247565b8181036020830152611dc381856112c8565b9050611dd26040830184611301565b949350505050565b7f4e487b7100000000000000000000000000000000000000000000000000000000600052601160045260246000fd5b6000611e14826110d2565b91507fffffffffffffffffffffffffffffffffffffffffffffffffffffffffffffffff8203611e4657611e45611dda565b5b600182019050919050565b7f43616e6e6f74207472616e736665722061206c6f73742070617263656c000000600082015250565b6000611e87601d8361127c565b9150611e9282611e51565b602082019050919050565b60006020820190508181036000830152611eb681611e7a565b9050919050565b7f496e76616c696420636865636b706f696e740000000000000000000000000000600082015250565b6000611ef360128361127c565b9150611efe82611ebd565b602082019050919050565b60006020820190508181036000830152611f2281611ee6565b9050919050565b6000606082019050611f3e6000830186611247565b611f4b6020830185611247565b611f586040830184611247565b949350505050565b6000608082019050611f756000830187611247565b611f826020830186611301565b611f8f6040830185611301565b611f9c6060830184611247565b95945050505050565b6000611fb0826110d2565b9150611fbb836110d2565b9250828201905080821115611fd357611fd2611dda565b5b92915050565b7f4e487b7100000000000000000000000000000000000000000000000000000000600052603260045260246000fd5b7f4f6e6c79207468652063757272656e74206f776e65722063616e20766965772060008201527f7468652070617263656c2064657461696c730000000000000000000000000000602082015250565b600061206460328361127c565b915061206f82612008565b604082019050919050565b6000602082019050818103600083015261209381612057565b9050919050565b7f4f6e6c792063757272656e74206f776e65722063616e207265706f727420706160008201527f7263656c206c6f73740000000000000000000000000000000000000000000000602082015250565b60006120f660298361127c565b91506121018261209a565b604082019050919050565b60006020820190508181036000830152612125816120e9565b9050919050565b6000612137826110d2565b9150612142836110d2565b925082820390508181111561215a57612159611dda565b5b9291505056fea2646970667358221220cf499cbead1ec170fd730700bff6042e680159c6a5e875f5ac4cef98d38997ba64736f6c63430008130033",
  "immutableReferences": {},
  "source": "// SPDX-License-Identifier: MIT\r\npragma solidity ^0.8.19;\r\n\r\ncontract SupplyChain {\r\n    struct Parcel {\r\n        uint256 id;\r\n        string name;\r\n        string description;\r\n        string location;\r\n        string service;\r\n        address currentOwner;\r\n        address[] trackingHistory;\r\n        bool isLost;\r\n        uint256 checkpointCount;\r\n        string[] allLocations;\r\n        uint code;\r\n        uint256 latestCheckpoint; // Added latestCheckpoint property\r\n    }\r\n\r\n    mapping(uint256 => Parcel) public parcels;\r\n    uint256 public nextParcelId;\r\n\r\n    event ParcelRegistered(uint256 parcelId, string name, address owner);\r\n    event CheckpointCompleted(uint256 parcelId, uint256 checkpoint, uint256 blockNumber);\r\n    event ParcelTransferred(uint256 parcelId, address from, address to, uint256 checkpoint);\r\n    event ParcelLost(uint256 parcelId);\r\n\r\n    function registerParcel(\r\n        string memory name,\r\n        string memory description,\r\n        string memory location,\r\n        string memory service,\r\n        uint256 numCheckpoints,\r\n        string[] memory locations\r\n    ) public {\r\n        require(locations.length == numCheckpoints, \"Locations length must match number of checkpoints\");\r\n\r\n        Parcel storage newParcel = parcels[nextParcelId];\r\n        newParcel.id = nextParcelId;\r\n        newParcel.name = name;\r\n        newParcel.description = description;\r\n        newParcel.location = location;\r\n        newParcel.service = service;\r\n        newParcel.currentOwner = msg.sender;\r\n        newParcel.trackingHistory.push(msg.sender);\r\n        newParcel.isLost = false;\r\n        newParcel.checkpointCount = numCheckpoints;\r\n        newParcel.allLocations = locations;\r\n        newParcel.code = uint(keccak256(abi.encodePacked(block.timestamp, block.prevrandao, msg.sender))) % 10000; // Generates a random number between 0 and 9999\r\n        newParcel.latestCheckpoint = 0; // Initialize latestCheckpoint\r\n\r\n        emit ParcelRegistered(nextParcelId, name, msg.sender);\r\n        nextParcelId++;\r\n    }\r\n\r\n    function transferParcel(\r\n        uint256 parcelId,\r\n        uint256 checkpoint\r\n        // uint256 code\r\n    ) public {\r\n        Parcel storage parcel = parcels[parcelId];\r\n        require(!parcel.isLost, \"Cannot transfer a lost parcel\");\r\n        require(checkpoint > 0 && checkpoint <= parcel.checkpointCount, \"Invalid checkpoint\");\r\n        // require(parcel.code == code, \"Invalid code\");\r\n\r\n        // Update checkpoint\r\n        parcel.latestCheckpoint = checkpoint; // Update latestCheckpoint\r\n        parcel.trackingHistory.push(msg.sender);\r\n        parcel.currentOwner = msg.sender;\r\n\r\n        // Emit checkpoint completion event with block number and code\r\n        emit CheckpointCompleted(parcelId, checkpoint, block.number);\r\n        emit ParcelTransferred(parcelId, msg.sender, msg.sender, checkpoint);\r\n    }\r\n\r\n    function reportParcelLost(uint256 parcelId) public {\r\n        Parcel storage parcel = parcels[parcelId];\r\n        require(msg.sender == parcel.currentOwner, \"Only current owner can report parcel lost\");\r\n\r\n        parcel.isLost = true;\r\n\r\n        emit ParcelLost(parcelId);\r\n    }\r\n\r\n    function getParcelHistory(uint256 parcelId) public view returns (address[] memory) {\r\n        return parcels[parcelId].trackingHistory;\r\n    }\r\n\r\n    function getParcelDetails(uint256 parcelId) public view returns (\r\n        uint256 id,\r\n        uint256 latestCheckpoint,\r\n        string memory name,\r\n        string memory description,\r\n        string memory location,\r\n        string memory service,\r\n        uint256 checkpointCount,\r\n        string[] memory allLocations\r\n\r\n    ) {\r\n        Parcel storage parcel = parcels[parcelId];\r\n        require(msg.sender == parcel.currentOwner, \"Only the current owner can view the parcel details\");\r\n\r\n        return (\r\n            parcel.id,\r\n            parcel.latestCheckpoint,\r\n            parcel.name,\r\n            parcel.description,\r\n            parcel.location,\r\n            parcel.service, \r\n            parcel.checkpointCount,\r\n            parcel.allLocations\r\n        );\r\n    }\r\n\r\n    function getNextLocation(uint256 parcelId) public view returns (string memory) {\r\n        Parcel storage parcel = parcels[parcelId];\r\n        uint256 nextCheckpoint = parcel.latestCheckpoint + 1;\r\n        require(nextCheckpoint < parcel.checkpointCount, \"Invalid checkpoint\");\r\n        return parcel.allLocations[nextCheckpoint];\r\n    }\r\n\r\n    function getParcelCount() public view returns (uint256) {\r\n        return nextParcelId;\r\n    }\r\n\r\n    function getCode() public view returns (uint256) {\r\n        return parcels[nextParcelId - 1].code;\r\n    }\r\n}\r\n",
  "sourcePath": "D:\\R\\web dev vs coding\\my-supply-chain\\contracts\\SupplyChain.sol",
  "compiler": {
    "name": "solc",
    "version": "0.8.19+commit.7dd6d404.Emscripten.clang"
  },
  "schemaVersion": "3.4.16",
  "updatedAt": "2024-07-27T06:16:44.325Z",
  "networkType": "ethereum",
  "devdoc": {
    "kind": "dev",
    "methods": {},
    "version": 1
  },
  "userdoc": {
    "kind": "user",
    "methods": {},
    "version": 1
  }
}