{
  "contractName": "SupplyChain",
  "abi": [
    {
      "anonymous": false,
      "inputs": [
        {
          "indexed": false,
          "internalType": "uint256",
          "name": "parcelId",
          "type": "uint256"
        },
        {
          "indexed": false,
          "internalType": "uint256",
          "name": "checkpoint",
          "type": "uint256"
        },
        {
          "indexed": false,
          "internalType": "uint256",
          "name": "blockNumber",
          "type": "uint256"
        },
        {
          "indexed": false,
          "internalType": "uint256",
          "name": "code",
          "type": "uint256"
        }
      ],
      "name": "CheckpointCompleted",
      "type": "event"
    },
    {
      "anonymous": false,
      "inputs": [
        {
          "indexed": false,
          "internalType": "uint256",
          "name": "parcelId",
          "type": "uint256"
        }
      ],
      "name": "ParcelLost",
      "type": "event"
    },
    {
      "anonymous": false,
      "inputs": [
        {
          "indexed": false,
          "internalType": "uint256",
          "name": "parcelId",
          "type": "uint256"
        },
        {
          "indexed": false,
          "internalType": "string",
          "name": "name",
          "type": "string"
        },
        {
          "indexed": false,
          "internalType": "address",
          "name": "owner",
          "type": "address"
        }
      ],
      "name": "ParcelRegistered",
      "type": "event"
    },
    {
      "anonymous": false,
      "inputs": [
        {
          "indexed": false,
          "internalType": "uint256",
          "name": "parcelId",
          "type": "uint256"
        },
        {
          "indexed": false,
          "internalType": "address",
          "name": "from",
          "type": "address"
        },
        {
          "indexed": false,
          "internalType": "address",
          "name": "to",
          "type": "address"
        },
        {
          "indexed": false,
          "internalType": "uint256",
          "name": "checkpoint",
          "type": "uint256"
        }
      ],
      "name": "ParcelTransferred",
      "type": "event"
    },
    {
      "inputs": [],
      "name": "nextParcelId",
      "outputs": [
        {
          "internalType": "uint256",
          "name": "",
          "type": "uint256"
        }
      ],
      "stateMutability": "view",
      "type": "function",
      "constant": true
    },
    {
      "inputs": [
        {
          "internalType": "uint256",
          "name": "",
          "type": "uint256"
        }
      ],
      "name": "parcels",
      "outputs": [
        {
          "internalType": "uint256",
          "name": "id",
          "type": "uint256"
        },
        {
          "internalType": "string",
          "name": "name",
          "type": "string"
        },
        {
          "internalType": "string",
          "name": "description",
          "type": "string"
        },
        {
          "internalType": "string",
          "name": "location",
          "type": "string"
        },
        {
          "internalType": "string",
          "name": "service",
          "type": "string"
        },
        {
          "internalType": "address",
          "name": "currentOwner",
          "type": "address"
        },
        {
          "internalType": "bool",
          "name": "isLost",
          "type": "bool"
        },
        {
          "internalType": "uint256",
          "name": "checkpointCount",
          "type": "uint256"
        },
        {
          "internalType": "uint256",
          "name": "code",
          "type": "uint256"
        }
      ],
      "stateMutability": "view",
      "type": "function",
      "constant": true
    },
    {
      "inputs": [
        {
          "internalType": "string",
          "name": "name",
          "type": "string"
        },
        {
          "internalType": "string",
          "name": "description",
          "type": "string"
        },
        {
          "internalType": "string",
          "name": "location",
          "type": "string"
        },
        {
          "internalType": "string",
          "name": "service",
          "type": "string"
        },
        {
          "internalType": "uint256",
          "name": "numCheckpoints",
          "type": "uint256"
        },
        {
          "internalType": "string[]",
          "name": "locations",
          "type": "string[]"
        }
      ],
      "name": "registerParcel",
      "outputs": [],
      "stateMutability": "nonpayable",
      "type": "function"
    },
    {
      "inputs": [
        {
          "internalType": "uint256",
          "name": "parcelId",
          "type": "uint256"
        },
        {
          "internalType": "uint256",
          "name": "checkpoint",
          "type": "uint256"
        },
        {
          "internalType": "uint256",
          "name": "code",
          "type": "uint256"
        }
      ],
      "name": "transferParcel",
      "outputs": [],
      "stateMutability": "nonpayable",
      "type": "function"
    },
    {
      "inputs": [
        {
          "internalType": "uint256",
          "name": "parcelId",
          "type": "uint256"
        }
      ],
      "name": "reportParcelLost",
      "outputs": [],
      "stateMutability": "nonpayable",
      "type": "function"
    },
    {
      "inputs": [
        {
          "internalType": "uint256",
          "name": "parcelId",
          "type": "uint256"
        },
        {
          "internalType": "uint256",
          "name": "checkpoint",
          "type": "uint256"
        },
        {
          "internalType": "uint256",
          "name": "id",
          "type": "uint256"
        }
      ],
      "name": "verifyCheckpoint",
      "outputs": [
        {
          "internalType": "bool",
          "name": "",
          "type": "bool"
        }
      ],
      "stateMutability": "view",
      "type": "function",
      "constant": true
    },
    {
      "inputs": [
        {
          "internalType": "uint256",
          "name": "parcelId",
          "type": "uint256"
        }
      ],
      "name": "getParcelHistory",
      "outputs": [
        {
          "internalType": "address[]",
          "name": "",
          "type": "address[]"
        }
      ],
      "stateMutability": "view",
      "type": "function",
      "constant": true
    },
    {
      "inputs": [
        {
          "internalType": "uint256",
          "name": "parcelId",
          "type": "uint256"
        }
      ],
      "name": "getParcelDetails",
      "outputs": [
        {
          "internalType": "uint256",
          "name": "id",
          "type": "uint256"
        },
        {
          "internalType": "string",
          "name": "name",
          "type": "string"
        },
        {
          "internalType": "string",
          "name": "description",
          "type": "string"
        },
        {
          "internalType": "string",
          "name": "location",
          "type": "string"
        },
        {
          "internalType": "string",
          "name": "service",
          "type": "string"
        },
        {
          "internalType": "uint256",
          "name": "checkpointCount",
          "type": "uint256"
        },
        {
          "internalType": "string[]",
          "name": "allLocations",
          "type": "string[]"
        }
      ],
      "stateMutability": "view",
      "type": "function",
      "constant": true
    },
    {
      "inputs": [
        {
          "internalType": "uint256",
          "name": "parcelId",
          "type": "uint256"
        },
        {
          "internalType": "uint256",
          "name": "checkpoint",
          "type": "uint256"
        }
      ],
      "name": "getNextLocation",
      "outputs": [
        {
          "internalType": "string",
          "name": "",
          "type": "string"
        }
      ],
      "stateMutability": "view",
      "type": "function",
      "constant": true
    },
    {
      "inputs": [],
      "name": "getParcelCount",
      "outputs": [
        {
          "internalType": "uint256",
          "name": "",
          "type": "uint256"
        }
      ],
      "stateMutability": "view",
      "type": "function",
      "constant": true
    },
    {
      "inputs": [],
      "name": "getCode",
      "outputs": [
        {
          "internalType": "uint256",
          "name": "",
          "type": "uint256"
        }
      ],
      "stateMutability": "view",
      "type": "function",
      "constant": true
    }
  ],
  "bytecode": "0x608060405234801561001057600080fd5b50612340806100206000396000f3fe608060405234801561001057600080fd5b50600436106100a95760003560e01c8063a0fa8ede11610071578063a0fa8ede14610166578063a72eca091461019e578063d66715d6146101ba578063e10c3254146101f0578063ea8796341461020c578063f3b8f90c1461022a576100a9565b806339108982146100ae57806352a7494d146100de57806370b195da146100fc578063950c71d8146101185780639e42cfd214610136575b600080fd5b6100c860048036038101906100c3919061121c565b61025a565b6040516100d59190611339565b60405180910390f35b6100e66102fd565b6040516100f3919061136a565b60405180910390f35b61011660048036038101906101119190611385565b610307565b005b61012061055e565b60405161012d919061136a565b60405180910390f35b610150600480360381019061014b9190611385565b610564565b60405161015d91906113f3565b60405180910390f35b610180600480360381019061017b919061121c565b6105fe565b604051610195999897969594939291906114ad565b60405180910390f35b6101b860048036038101906101b39190611771565b610899565b005b6101d460048036038101906101cf919061121c565b610acf565b6040516101e79796959493929190611996565b60405180910390f35b61020a6004803603810190610205919061121c565b610ebe565b005b610214610fbe565b604051610221919061136a565b60405180910390f35b610244600480360381019061023f9190611a28565b610fe8565b6040516102519190611a68565b60405180910390f35b60606000808381526020019081526020016000206006018054806020026020016040519081016040528092919081815260200182805480156102f157602002820191906000526020600020905b8160009054906101000a900473ffffffffffffffffffffffffffffffffffffffff1673ffffffffffffffffffffffffffffffffffffffff16815260200190600101908083116102a7575b50505050509050919050565b6000600154905090565b600080600085815260200190815260200160002090508060070160009054906101000a900460ff161561036f576040517f08c379a000000000000000000000000000000000000000000000000000000000815260040161036690611ad6565b60405180910390fd5b600083118015610383575080600801548311155b6103c2576040517f08c379a00000000000000000000000000000000000000000000000000000000081526004016103b990611b42565b60405180910390fd5b8181600b015414610408576040517f08c379a00000000000000000000000000000000000000000000000000000000081526004016103ff90611bae565b60405180910390fd5b600181600a01600085815260200190815260200160002060006101000a81548160ff02191690831515021790555080600601339080600181540180825580915050600190039060005260206000200160009091909190916101000a81548173ffffffffffffffffffffffffffffffffffffffff021916908373ffffffffffffffffffffffffffffffffffffffff160217905550338160050160006101000a81548173ffffffffffffffffffffffffffffffffffffffff021916908373ffffffffffffffffffffffffffffffffffffffff1602179055507fe3899829df44a7bdbdb8c0d2b96dd7517186f72117b2a6fdea7f0569d2d66a85848443856040516105139493929190611bce565b60405180910390a17fb7bc84a8dff11bcd1bbcbd04c2d9723be3328d320c0f09d9b30a6d5b0688274c843333866040516105509493929190611c13565b60405180910390a150505050565b60015481565b600080600080868152602001908152602001600020905080600801548411156105c2576040517f08c379a00000000000000000000000000000000000000000000000000000000081526004016105b990611b42565b60405180910390fd5b80600a01600085815260200190815260200160002060009054906101000a900460ff1680156105f45750828160000154145b9150509392505050565b600060205280600052604060002060009150905080600001549080600101805461062790611c87565b80601f016020809104026020016040519081016040528092919081815260200182805461065390611c87565b80156106a05780601f10610675576101008083540402835291602001916106a0565b820191906000526020600020905b81548152906001019060200180831161068357829003601f168201915b5050505050908060020180546106b590611c87565b80601f01602080910402602001604051908101604052809291908181526020018280546106e190611c87565b801561072e5780601f106107035761010080835404028352916020019161072e565b820191906000526020600020905b81548152906001019060200180831161071157829003601f168201915b50505050509080600301805461074390611c87565b80601f016020809104026020016040519081016040528092919081815260200182805461076f90611c87565b80156107bc5780601f10610791576101008083540402835291602001916107bc565b820191906000526020600020905b81548152906001019060200180831161079f57829003601f168201915b5050505050908060040180546107d190611c87565b80601f01602080910402602001604051908101604052809291908181526020018280546107fd90611c87565b801561084a5780601f1061081f5761010080835404028352916020019161084a565b820191906000526020600020905b81548152906001019060200180831161082d57829003601f168201915b5050505050908060050160009054906101000a900473ffffffffffffffffffffffffffffffffffffffff16908060070160009054906101000a900460ff169080600801549080600b0154905089565b818151146108dc576040517f08c379a00000000000000000000000000000000000000000000000000000000081526004016108d390611d2a565b60405180910390fd5b6000806000600154815260200190815260200160002090506001548160000181905550868160010190816109109190611ef6565b50858160020190816109229190611ef6565b50848160030190816109349190611ef6565b50838160040190816109469190611ef6565b50338160050160006101000a81548173ffffffffffffffffffffffffffffffffffffffff021916908373ffffffffffffffffffffffffffffffffffffffff16021790555080600601339080600181540180825580915050600190039060005260206000200160009091909190916101000a81548173ffffffffffffffffffffffffffffffffffffffff021916908373ffffffffffffffffffffffffffffffffffffffff16021790555060008160070160006101000a81548160ff02191690831515021790555082816008018190555081816009019080519060200190610a2d9291906110f8565b50612710424433604051602001610a4693929190612031565b6040516020818303038152906040528051906020012060001c610a69919061209d565b81600b01819055507fe1f789bdc940834eb233dd246835f12cc939d8dc0149a8591045425c026e19a86001548833604051610aa6939291906120ce565b60405180910390a160016000815480929190610ac19061213b565b919050555050505050505050565b60006060806060806000606060008060008a815260200190815260200160002090508060050160009054906101000a900473ffffffffffffffffffffffffffffffffffffffff1673ffffffffffffffffffffffffffffffffffffffff163373ffffffffffffffffffffffffffffffffffffffff1614610b83576040517f08c379a0000000000000000000000000000000000000000000000000000000008152600401610b7a906121f5565b60405180910390fd5b806000015481600101826002018360030184600401856008015486600901858054610bad90611c87565b80601f0160208091040260200160405190810160405280929190818152602001828054610bd990611c87565b8015610c265780601f10610bfb57610100808354040283529160200191610c26565b820191906000526020600020905b815481529060010190602001808311610c0957829003601f168201915b50505050509550848054610c3990611c87565b80601f0160208091040260200160405190810160405280929190818152602001828054610c6590611c87565b8015610cb25780601f10610c8757610100808354040283529160200191610cb2565b820191906000526020600020905b815481529060010190602001808311610c9557829003601f168201915b50505050509450838054610cc590611c87565b80601f0160208091040260200160405190810160405280929190818152602001828054610cf190611c87565b8015610d3e5780601f10610d1357610100808354040283529160200191610d3e565b820191906000526020600020905b815481529060010190602001808311610d2157829003601f168201915b50505050509350828054610d5190611c87565b80601f0160208091040260200160405190810160405280929190818152602001828054610d7d90611c87565b8015610dca5780601f10610d9f57610100808354040283529160200191610dca565b820191906000526020600020905b815481529060010190602001808311610dad57829003601f168201915b5050505050925080805480602002602001604051908101604052809291908181526020016000905b82821015610e9e578382906000526020600020018054610e1190611c87565b80601f0160208091040260200160405190810160405280929190818152602001828054610e3d90611c87565b8015610e8a5780601f10610e5f57610100808354040283529160200191610e8a565b820191906000526020600020905b815481529060010190602001808311610e6d57829003601f168201915b505050505081526020019060010190610df2565b505050509050975097509750975097509750975050919395979092949650565b600080600083815260200190815260200160002090508060050160009054906101000a900473ffffffffffffffffffffffffffffffffffffffff1673ffffffffffffffffffffffffffffffffffffffff163373ffffffffffffffffffffffffffffffffffffffff1614610f66576040517f08c379a0000000000000000000000000000000000000000000000000000000008152600401610f5d90612287565b60405180910390fd5b60018160070160006101000a81548160ff0219169083151502179055507f6196b5a3e49e3b84c16fbc89f00fb1f25fdf80b1cf2f5e7a7b36e10136b85dac82604051610fb2919061136a565b60405180910390a15050565b600080600060018054610fd191906122a7565b8152602001908152602001600020600b0154905090565b60606000806000858152602001908152602001600020905080600801548310611046576040517f08c379a000000000000000000000000000000000000000000000000000000000815260040161103d90611b42565b60405180910390fd5b80600901838154811061105c5761105b6122db565b5b90600052602060002001805461107190611c87565b80601f016020809104026020016040519081016040528092919081815260200182805461109d90611c87565b80156110ea5780601f106110bf576101008083540402835291602001916110ea565b820191906000526020600020905b8154815290600101906020018083116110cd57829003601f168201915b505050505091505092915050565b828054828255906000526020600020908101928215611140579160200282015b8281111561113f57825182908161112f9190611ef6565b5091602001919060010190611118565b5b50905061114d9190611151565b5090565b5b8082111561117157600081816111689190611175565b50600101611152565b5090565b50805461118190611c87565b6000825580601f1061119357506111b2565b601f0160209004906000526020600020908101906111b191906111b5565b5b50565b5b808211156111ce5760008160009055506001016111b6565b5090565b6000604051905090565b600080fd5b600080fd5b6000819050919050565b6111f9816111e6565b811461120457600080fd5b50565b600081359050611216816111f0565b92915050565b600060208284031215611232576112316111dc565b5b600061124084828501611207565b91505092915050565b600081519050919050565b600082825260208201905092915050565b6000819050602082019050919050565b600073ffffffffffffffffffffffffffffffffffffffff82169050919050565b60006112a082611275565b9050919050565b6112b081611295565b82525050565b60006112c283836112a7565b60208301905092915050565b6000602082019050919050565b60006112e682611249565b6112f08185611254565b93506112fb83611265565b8060005b8381101561132c57815161131388826112b6565b975061131e836112ce565b9250506001810190506112ff565b5085935050505092915050565b6000602082019050818103600083015261135381846112db565b905092915050565b611364816111e6565b82525050565b600060208201905061137f600083018461135b565b92915050565b60008060006060848603121561139e5761139d6111dc565b5b60006113ac86828701611207565b93505060206113bd86828701611207565b92505060406113ce86828701611207565b9150509250925092565b60008115159050919050565b6113ed816113d8565b82525050565b600060208201905061140860008301846113e4565b92915050565b600081519050919050565b600082825260208201905092915050565b60005b8381101561144857808201518184015260208101905061142d565b60008484015250505050565b6000601f19601f8301169050919050565b60006114708261140e565b61147a8185611419565b935061148a81856020860161142a565b61149381611454565b840191505092915050565b6114a781611295565b82525050565b6000610120820190506114c3600083018c61135b565b81810360208301526114d5818b611465565b905081810360408301526114e9818a611465565b905081810360608301526114fd8189611465565b905081810360808301526115118188611465565b905061152060a083018761149e565b61152d60c08301866113e4565b61153a60e083018561135b565b61154861010083018461135b565b9a9950505050505050505050565b600080fd5b600080fd5b7f4e487b7100000000000000000000000000000000000000000000000000000000600052604160045260246000fd5b61159882611454565b810181811067ffffffffffffffff821117156115b7576115b6611560565b5b80604052505050565b60006115ca6111d2565b90506115d6828261158f565b919050565b600067ffffffffffffffff8211156115f6576115f5611560565b5b6115ff82611454565b9050602081019050919050565b82818337600083830152505050565b600061162e611629846115db565b6115c0565b90508281526020810184848401111561164a5761164961155b565b5b61165584828561160c565b509392505050565b600082601f83011261167257611671611556565b5b813561168284826020860161161b565b91505092915050565b600067ffffffffffffffff8211156116a6576116a5611560565b5b602082029050602081019050919050565b600080fd5b60006116cf6116ca8461168b565b6115c0565b905080838252602082019050602084028301858111156116f2576116f16116b7565b5b835b8181101561173957803567ffffffffffffffff81111561171757611716611556565b5b808601611724898261165d565b855260208501945050506020810190506116f4565b5050509392505050565b600082601f83011261175857611757611556565b5b81356117688482602086016116bc565b91505092915050565b60008060008060008060c0878903121561178e5761178d6111dc565b5b600087013567ffffffffffffffff8111156117ac576117ab6111e1565b5b6117b889828a0161165d565b965050602087013567ffffffffffffffff8111156117d9576117d86111e1565b5b6117e589828a0161165d565b955050604087013567ffffffffffffffff811115611806576118056111e1565b5b61181289828a0161165d565b945050606087013567ffffffffffffffff811115611833576118326111e1565b5b61183f89828a0161165d565b935050608061185089828a01611207565b92505060a087013567ffffffffffffffff811115611871576118706111e1565b5b61187d89828a01611743565b9150509295509295509295565b600081519050919050565b600082825260208201905092915050565b6000819050602082019050919050565b600082825260208201905092915050565b60006118d28261140e565b6118dc81856118b6565b93506118ec81856020860161142a565b6118f581611454565b840191505092915050565b600061190c83836118c7565b905092915050565b6000602082019050919050565b600061192c8261188a565b6119368185611895565b935083602082028501611948856118a6565b8060005b8581101561198457848403895281516119658582611900565b945061197083611914565b925060208a0199505060018101905061194c565b50829750879550505050505092915050565b600060e0820190506119ab600083018a61135b565b81810360208301526119bd8189611465565b905081810360408301526119d18188611465565b905081810360608301526119e58187611465565b905081810360808301526119f98186611465565b9050611a0860a083018561135b565b81810360c0830152611a1a8184611921565b905098975050505050505050565b60008060408385031215611a3f57611a3e6111dc565b5b6000611a4d85828601611207565b9250506020611a5e85828601611207565b9150509250929050565b60006020820190508181036000830152611a828184611465565b905092915050565b7f43616e6e6f74207472616e736665722061206c6f73742070617263656c000000600082015250565b6000611ac0601d83611419565b9150611acb82611a8a565b602082019050919050565b60006020820190508181036000830152611aef81611ab3565b9050919050565b7f496e76616c696420636865636b706f696e740000000000000000000000000000600082015250565b6000611b2c601283611419565b9150611b3782611af6565b602082019050919050565b60006020820190508181036000830152611b5b81611b1f565b9050919050565b7f496e76616c696420636f64650000000000000000000000000000000000000000600082015250565b6000611b98600c83611419565b9150611ba382611b62565b602082019050919050565b60006020820190508181036000830152611bc781611b8b565b9050919050565b6000608082019050611be3600083018761135b565b611bf0602083018661135b565b611bfd604083018561135b565b611c0a606083018461135b565b95945050505050565b6000608082019050611c28600083018761135b565b611c35602083018661149e565b611c42604083018561149e565b611c4f606083018461135b565b95945050505050565b7f4e487b7100000000000000000000000000000000000000000000000000000000600052602260045260246000fd5b60006002820490506001821680611c9f57607f821691505b602082108103611cb257611cb1611c58565b5b50919050565b7f4c6f636174696f6e73206c656e677468206d757374206d61746368206e756d6260008201527f6572206f6620636865636b706f696e7473000000000000000000000000000000602082015250565b6000611d14603183611419565b9150611d1f82611cb8565b604082019050919050565b60006020820190508181036000830152611d4381611d07565b9050919050565b60008190508160005260206000209050919050565b60006020601f8301049050919050565b600082821b905092915050565b600060088302611dac7fffffffffffffffffffffffffffffffffffffffffffffffffffffffffffffffff82611d6f565b611db68683611d6f565b95508019841693508086168417925050509392505050565b6000819050919050565b6000611df3611dee611de9846111e6565b611dce565b6111e6565b9050919050565b6000819050919050565b611e0d83611dd8565b611e21611e1982611dfa565b848454611d7c565b825550505050565b600090565b611e36611e29565b611e41818484611e04565b505050565b5b81811015611e6557611e5a600082611e2e565b600181019050611e47565b5050565b601f821115611eaa57611e7b81611d4a565b611e8484611d5f565b81016020851015611e93578190505b611ea7611e9f85611d5f565b830182611e46565b50505b505050565b600082821c905092915050565b6000611ecd60001984600802611eaf565b1980831691505092915050565b6000611ee68383611ebc565b9150826002028217905092915050565b611eff8261140e565b67ffffffffffffffff811115611f1857611f17611560565b5b611f228254611c87565b611f2d828285611e69565b600060209050601f831160018114611f605760008415611f4e578287015190505b611f588582611eda565b865550611fc0565b601f198416611f6e86611d4a565b60005b82811015611f9657848901518255600182019150602085019450602081019050611f71565b86831015611fb35784890151611faf601f891682611ebc565b8355505b6001600288020188555050505b505050505050565b6000819050919050565b611fe3611fde826111e6565b611fc8565b82525050565b60008160601b9050919050565b600061200182611fe9565b9050919050565b600061201382611ff6565b9050919050565b61202b61202682611295565b612008565b82525050565b600061203d8286611fd2565b60208201915061204d8285611fd2565b60208201915061205d828461201a565b601482019150819050949350505050565b7f4e487b7100000000000000000000000000000000000000000000000000000000600052601260045260246000fd5b60006120a8826111e6565b91506120b3836111e6565b9250826120c3576120c261206e565b5b828206905092915050565b60006060820190506120e3600083018661135b565b81810360208301526120f58185611465565b9050612104604083018461149e565b949350505050565b7f4e487b7100000000000000000000000000000000000000000000000000000000600052601160045260246000fd5b6000612146826111e6565b91507fffffffffffffffffffffffffffffffffffffffffffffffffffffffffffffffff82036121785761217761210c565b5b600182019050919050565b7f4f6e6c79207468652063757272656e74206f776e65722063616e20766965772060008201527f7468652070617263656c2064657461696c730000000000000000000000000000602082015250565b60006121df603283611419565b91506121ea82612183565b604082019050919050565b6000602082019050818103600083015261220e816121d2565b9050919050565b7f4f6e6c792063757272656e74206f776e65722063616e207265706f727420706160008201527f7263656c206c6f73740000000000000000000000000000000000000000000000602082015250565b6000612271602983611419565b915061227c82612215565b604082019050919050565b600060208201905081810360008301526122a081612264565b9050919050565b60006122b2826111e6565b91506122bd836111e6565b92508282039050818111156122d5576122d461210c565b5b92915050565b7f4e487b7100000000000000000000000000000000000000000000000000000000600052603260045260246000fdfea2646970667358221220e82a513393249947c414335f2b7b16256def1ba26b4ff00ba9a4cee0eebd5d0964736f6c63430008130033",
  "immutableReferences": {},
  "source": "// SPDX-License-Identifier: MIT\r\npragma solidity ^0.8.19;\r\n\r\ncontract SupplyChain {\r\n    struct Parcel {\r\n        uint256 id;\r\n        string name;\r\n        string description;\r\n        string location;\r\n        string service;\r\n        address currentOwner;\r\n        address[] trackingHistory;\r\n        bool isLost;\r\n        uint256 checkpointCount;\r\n        string[] allLocations;\r\n        mapping(uint256 => bool) checkpoints; // Checkpoint completion status\r\n        uint code;\r\n    }\r\n\r\n    mapping(uint256 => Parcel) public parcels;\r\n    uint256 public nextParcelId;\r\n\r\n    event ParcelRegistered(uint256 parcelId, string name, address owner);\r\n    event CheckpointCompleted(uint256 parcelId, uint256 checkpoint, uint256 blockNumber, uint256 code);\r\n    event ParcelTransferred(uint256 parcelId, address from, address to, uint256 checkpoint);\r\n    event ParcelLost(uint256 parcelId);\r\n\r\n    function registerParcel(\r\n        string memory name,\r\n        string memory description,\r\n        string memory location,\r\n        string memory service,\r\n        uint256 numCheckpoints,\r\n        string[] memory locations\r\n    ) public {\r\n        require(locations.length == numCheckpoints, \"Locations length must match number of checkpoints\");\r\n\r\n        Parcel storage newParcel = parcels[nextParcelId];\r\n        newParcel.id = nextParcelId;\r\n        newParcel.name = name;\r\n        newParcel.description = description;\r\n        newParcel.location = location;\r\n        newParcel.service = service;\r\n        newParcel.currentOwner = msg.sender;\r\n        newParcel.trackingHistory.push(msg.sender);\r\n        newParcel.isLost = false;\r\n        newParcel.checkpointCount = numCheckpoints;\r\n        newParcel.allLocations = locations;\r\n        newParcel.code = uint(keccak256(abi.encodePacked(block.timestamp, block.prevrandao, msg.sender))) % 10000; // Generates a random number between 0 and 9999\r\n\r\n        emit ParcelRegistered(nextParcelId, name, msg.sender);\r\n        nextParcelId++;\r\n    }\r\n\r\n    function transferParcel(\r\n        uint256 parcelId,\r\n        uint256 checkpoint,\r\n        uint256 code\r\n    ) public {\r\n        Parcel storage parcel = parcels[parcelId];\r\n        require(!parcel.isLost, \"Cannot transfer a lost parcel\");\r\n        require(checkpoint > 0 && checkpoint <= parcel.checkpointCount, \"Invalid checkpoint\");\r\n        require(parcel.code == code, \"Invalid code\");\r\n\r\n        // Update checkpoint\r\n        parcel.checkpoints[checkpoint] = true;\r\n        parcel.trackingHistory.push(msg.sender);\r\n        parcel.currentOwner = msg.sender;\r\n\r\n        // Emit checkpoint completion event with block number and code\r\n        emit CheckpointCompleted(parcelId, checkpoint, block.number, code);\r\n        emit ParcelTransferred(parcelId, msg.sender, msg.sender, checkpoint);\r\n    }\r\n\r\n    function reportParcelLost(uint256 parcelId) public {\r\n        Parcel storage parcel = parcels[parcelId];\r\n        require(msg.sender == parcel.currentOwner, \"Only current owner can report parcel lost\");\r\n\r\n        parcel.isLost = true;\r\n\r\n        emit ParcelLost(parcelId);\r\n    }\r\n\r\n    function verifyCheckpoint(uint256 parcelId, uint256 checkpoint, uint256 id) public view returns (bool) {\r\n        Parcel storage parcel = parcels[parcelId];\r\n        require(checkpoint <= parcel.checkpointCount, \"Invalid checkpoint\");\r\n\r\n        // Check if the checkpoint is completed and id matches\r\n        return parcel.checkpoints[checkpoint] && parcel.id == id;\r\n    }\r\n\r\n    function getParcelHistory(uint256 parcelId) public view returns (address[] memory) {\r\n        return parcels[parcelId].trackingHistory;\r\n    }\r\n\r\n    function getParcelDetails(uint256 parcelId) public view returns (\r\n        uint256 id,\r\n        string memory name,\r\n        string memory description,\r\n        string memory location,\r\n        string memory service,\r\n        uint256 checkpointCount,\r\n        string[] memory allLocations\r\n    ) {\r\n        Parcel storage parcel = parcels[parcelId];\r\n        require(msg.sender == parcel.currentOwner, \"Only the current owner can view the parcel details\");\r\n\r\n        return (\r\n            parcel.id,\r\n            parcel.name,\r\n            parcel.description,\r\n            parcel.location,\r\n            parcel.service,\r\n            parcel.checkpointCount,\r\n            parcel.allLocations\r\n        );\r\n    }\r\n\r\n    function getNextLocation(uint256 parcelId, uint256 checkpoint) public view returns (string memory) {\r\n        Parcel storage parcel = parcels[parcelId];\r\n        require(checkpoint < parcel.checkpointCount, \"Invalid checkpoint\");\r\n\r\n        return parcel.allLocations[checkpoint];\r\n    }\r\n\r\n    function getParcelCount() public view returns (uint256 ) {\r\n        return nextParcelId;\r\n    }\r\n\r\n    function getCode() public view returns (uint256) {\r\n        return parcels[nextParcelId-1].code;\r\n    }\r\n}\r\n",
  "sourcePath": "D:\\R\\web dev vs coding\\my-supply-chain\\contracts\\SupplyChain.sol",
  "compiler": {
    "name": "solc",
    "version": "0.8.19+commit.7dd6d404.Emscripten.clang"
  },
  "schemaVersion": "3.4.16",
  "updatedAt": "2024-07-25T17:22:02.016Z",
  "networkType": "ethereum",
  "devdoc": {
    "kind": "dev",
    "methods": {},
    "version": 1
  },
  "userdoc": {
    "kind": "user",
    "methods": {},
    "version": 1
  }
}