{
  "contractName": "SupplyChain",
  "abi": [
    {
      "anonymous": false,
      "inputs": [
        {
          "indexed": false,
          "internalType": "uint256",
          "name": "parcelId",
          "type": "uint256"
        },
        {
          "indexed": false,
          "internalType": "uint256",
          "name": "checkpoint",
          "type": "uint256"
        },
        {
          "indexed": false,
          "internalType": "uint256",
          "name": "blockNumber",
          "type": "uint256"
        }
      ],
      "name": "CheckpointCompleted",
      "type": "event"
    },
    {
      "anonymous": false,
      "inputs": [
        {
          "indexed": false,
          "internalType": "uint256",
          "name": "parcelId",
          "type": "uint256"
        }
      ],
      "name": "ParcelLost",
      "type": "event"
    },
    {
      "anonymous": false,
      "inputs": [
        {
          "indexed": false,
          "internalType": "uint256",
          "name": "parcelId",
          "type": "uint256"
        },
        {
          "indexed": false,
          "internalType": "string",
          "name": "name",
          "type": "string"
        },
        {
          "indexed": false,
          "internalType": "address",
          "name": "owner",
          "type": "address"
        }
      ],
      "name": "ParcelRegistered",
      "type": "event"
    },
    {
      "anonymous": false,
      "inputs": [
        {
          "indexed": false,
          "internalType": "uint256",
          "name": "parcelId",
          "type": "uint256"
        },
        {
          "indexed": false,
          "internalType": "address",
          "name": "from",
          "type": "address"
        },
        {
          "indexed": false,
          "internalType": "address",
          "name": "to",
          "type": "address"
        },
        {
          "indexed": false,
          "internalType": "uint256",
          "name": "checkpoint",
          "type": "uint256"
        }
      ],
      "name": "ParcelTransferred",
      "type": "event"
    },
    {
      "inputs": [],
      "name": "nextParcelId",
      "outputs": [
        {
          "internalType": "uint256",
          "name": "",
          "type": "uint256"
        }
      ],
      "stateMutability": "view",
      "type": "function",
      "constant": true
    },
    {
      "inputs": [
        {
          "internalType": "uint256",
          "name": "",
          "type": "uint256"
        }
      ],
      "name": "parcels",
      "outputs": [
        {
          "internalType": "uint256",
          "name": "id",
          "type": "uint256"
        },
        {
          "internalType": "string",
          "name": "name",
          "type": "string"
        },
        {
          "internalType": "string",
          "name": "description",
          "type": "string"
        },
        {
          "internalType": "string",
          "name": "location",
          "type": "string"
        },
        {
          "internalType": "string",
          "name": "service",
          "type": "string"
        },
        {
          "internalType": "address",
          "name": "currentOwner",
          "type": "address"
        },
        {
          "internalType": "bool",
          "name": "isLost",
          "type": "bool"
        },
        {
          "internalType": "uint256",
          "name": "checkpointCount",
          "type": "uint256"
        },
        {
          "internalType": "uint256",
          "name": "code",
          "type": "uint256"
        }
      ],
      "stateMutability": "view",
      "type": "function",
      "constant": true
    },
    {
      "inputs": [
        {
          "internalType": "string",
          "name": "name",
          "type": "string"
        },
        {
          "internalType": "string",
          "name": "description",
          "type": "string"
        },
        {
          "internalType": "string",
          "name": "location",
          "type": "string"
        },
        {
          "internalType": "string",
          "name": "service",
          "type": "string"
        },
        {
          "internalType": "uint256",
          "name": "numCheckpoints",
          "type": "uint256"
        },
        {
          "internalType": "string[]",
          "name": "locations",
          "type": "string[]"
        }
      ],
      "name": "registerParcel",
      "outputs": [],
      "stateMutability": "nonpayable",
      "type": "function"
    },
    {
      "inputs": [
        {
          "internalType": "uint256",
          "name": "parcelId",
          "type": "uint256"
        },
        {
          "internalType": "uint256",
          "name": "checkpoint",
          "type": "uint256"
        }
      ],
      "name": "transferParcel",
      "outputs": [],
      "stateMutability": "nonpayable",
      "type": "function"
    },
    {
      "inputs": [
        {
          "internalType": "uint256",
          "name": "parcelId",
          "type": "uint256"
        }
      ],
      "name": "reportParcelLost",
      "outputs": [],
      "stateMutability": "nonpayable",
      "type": "function"
    },
    {
      "inputs": [
        {
          "internalType": "uint256",
          "name": "parcelId",
          "type": "uint256"
        },
        {
          "internalType": "uint256",
          "name": "checkpoint",
          "type": "uint256"
        },
        {
          "internalType": "uint256",
          "name": "id",
          "type": "uint256"
        }
      ],
      "name": "verifyCheckpoint",
      "outputs": [
        {
          "internalType": "bool",
          "name": "",
          "type": "bool"
        }
      ],
      "stateMutability": "view",
      "type": "function",
      "constant": true
    },
    {
      "inputs": [
        {
          "internalType": "uint256",
          "name": "parcelId",
          "type": "uint256"
        }
      ],
      "name": "getParcelHistory",
      "outputs": [
        {
          "internalType": "address[]",
          "name": "",
          "type": "address[]"
        }
      ],
      "stateMutability": "view",
      "type": "function",
      "constant": true
    },
    {
      "inputs": [
        {
          "internalType": "uint256",
          "name": "parcelId",
          "type": "uint256"
        }
      ],
      "name": "getParcelDetails",
      "outputs": [
        {
          "internalType": "uint256",
          "name": "id",
          "type": "uint256"
        },
        {
          "internalType": "string",
          "name": "name",
          "type": "string"
        },
        {
          "internalType": "string",
          "name": "description",
          "type": "string"
        },
        {
          "internalType": "string",
          "name": "location",
          "type": "string"
        },
        {
          "internalType": "string",
          "name": "service",
          "type": "string"
        },
        {
          "internalType": "uint256",
          "name": "checkpointCount",
          "type": "uint256"
        },
        {
          "internalType": "string[]",
          "name": "allLocations",
          "type": "string[]"
        }
      ],
      "stateMutability": "view",
      "type": "function",
      "constant": true
    },
    {
      "inputs": [
        {
          "internalType": "uint256",
          "name": "parcelId",
          "type": "uint256"
        },
        {
          "internalType": "uint256",
          "name": "checkpoint",
          "type": "uint256"
        }
      ],
      "name": "getNextLocation",
      "outputs": [
        {
          "internalType": "string",
          "name": "",
          "type": "string"
        }
      ],
      "stateMutability": "view",
      "type": "function",
      "constant": true
    },
    {
      "inputs": [],
      "name": "getParcelCount",
      "outputs": [
        {
          "internalType": "uint256",
          "name": "",
          "type": "uint256"
        }
      ],
      "stateMutability": "view",
      "type": "function",
      "constant": true
    },
    {
      "inputs": [],
      "name": "getCode",
      "outputs": [
        {
          "internalType": "uint256",
          "name": "",
          "type": "uint256"
        }
      ],
      "stateMutability": "view",
      "type": "function",
      "constant": true
    }
  ],
  "bytecode": "0x608060405234801561001057600080fd5b5061227d806100206000396000f3fe608060405234801561001057600080fd5b50600436106100a95760003560e01c8063a72eca0911610071578063a72eca0914610182578063ac4344cf1461019e578063d66715d6146101ba578063e10c3254146101f0578063ea8796341461020c578063f3b8f90c1461022a576100a9565b806339108982146100ae57806352a7494d146100de578063950c71d8146100fc5780639e42cfd21461011a578063a0fa8ede1461014a575b600080fd5b6100c860048036038101906100c391906111d3565b61025a565b6040516100d591906112f0565b60405180910390f35b6100e66102fd565b6040516100f39190611321565b60405180910390f35b610104610307565b6040516101119190611321565b60405180910390f35b610134600480360381019061012f919061133c565b61030d565b60405161014191906113aa565b60405180910390f35b610164600480360381019061015f91906111d3565b6103a7565b60405161017999989796959493929190611464565b60405180910390f35b61019c60048036038101906101979190611728565b610642565b005b6101b860048036038101906101b39190611841565b610878565b005b6101d460048036038101906101cf91906111d3565b610a86565b6040516101e7979695949392919061198d565b60405180910390f35b61020a600480360381019061020591906111d3565b610e75565b005b610214610f75565b6040516102219190611321565b60405180910390f35b610244600480360381019061023f9190611841565b610f9f565b6040516102519190611a1f565b60405180910390f35b60606000808381526020019081526020016000206006018054806020026020016040519081016040528092919081815260200182805480156102f157602002820191906000526020600020905b8160009054906101000a900473ffffffffffffffffffffffffffffffffffffffff1673ffffffffffffffffffffffffffffffffffffffff16815260200190600101908083116102a7575b50505050509050919050565b6000600154905090565b60015481565b6000806000808681526020019081526020016000209050806008015484111561036b576040517f08c379a000000000000000000000000000000000000000000000000000000000815260040161036290611a8d565b60405180910390fd5b80600a01600085815260200190815260200160002060009054906101000a900460ff16801561039d5750828160000154145b9150509392505050565b60006020528060005260406000206000915090508060000154908060010180546103d090611adc565b80601f01602080910402602001604051908101604052809291908181526020018280546103fc90611adc565b80156104495780601f1061041e57610100808354040283529160200191610449565b820191906000526020600020905b81548152906001019060200180831161042c57829003601f168201915b50505050509080600201805461045e90611adc565b80601f016020809104026020016040519081016040528092919081815260200182805461048a90611adc565b80156104d75780601f106104ac576101008083540402835291602001916104d7565b820191906000526020600020905b8154815290600101906020018083116104ba57829003601f168201915b5050505050908060030180546104ec90611adc565b80601f016020809104026020016040519081016040528092919081815260200182805461051890611adc565b80156105655780601f1061053a57610100808354040283529160200191610565565b820191906000526020600020905b81548152906001019060200180831161054857829003601f168201915b50505050509080600401805461057a90611adc565b80601f01602080910402602001604051908101604052809291908181526020018280546105a690611adc565b80156105f35780601f106105c8576101008083540402835291602001916105f3565b820191906000526020600020905b8154815290600101906020018083116105d657829003601f168201915b5050505050908060050160009054906101000a900473ffffffffffffffffffffffffffffffffffffffff16908060070160009054906101000a900460ff169080600801549080600b0154905089565b81815114610685576040517f08c379a000000000000000000000000000000000000000000000000000000000815260040161067c90611b7f565b60405180910390fd5b6000806000600154815260200190815260200160002090506001548160000181905550868160010190816106b99190611d4b565b50858160020190816106cb9190611d4b565b50848160030190816106dd9190611d4b565b50838160040190816106ef9190611d4b565b50338160050160006101000a81548173ffffffffffffffffffffffffffffffffffffffff021916908373ffffffffffffffffffffffffffffffffffffffff16021790555080600601339080600181540180825580915050600190039060005260206000200160009091909190916101000a81548173ffffffffffffffffffffffffffffffffffffffff021916908373ffffffffffffffffffffffffffffffffffffffff16021790555060008160070160006101000a81548160ff021916908315150217905550828160080181905550818160090190805190602001906107d69291906110af565b506127104244336040516020016107ef93929190611e86565b6040516020818303038152906040528051906020012060001c6108129190611ef2565b81600b01819055507fe1f789bdc940834eb233dd246835f12cc939d8dc0149a8591045425c026e19a8600154883360405161084f93929190611f23565b60405180910390a16001600081548092919061086a90611f90565b919050555050505050505050565b600080600084815260200190815260200160002090508060070160009054906101000a900460ff16156108e0576040517f08c379a00000000000000000000000000000000000000000000000000000000081526004016108d790612024565b60405180910390fd5b6000821180156108f4575080600801548211155b610933576040517f08c379a000000000000000000000000000000000000000000000000000000000815260040161092a90611a8d565b60405180910390fd5b600181600a01600084815260200190815260200160002060006101000a81548160ff02191690831515021790555080600601339080600181540180825580915050600190039060005260206000200160009091909190916101000a81548173ffffffffffffffffffffffffffffffffffffffff021916908373ffffffffffffffffffffffffffffffffffffffff160217905550338160050160006101000a81548173ffffffffffffffffffffffffffffffffffffffff021916908373ffffffffffffffffffffffffffffffffffffffff1602179055507f3b9f11f11a6ed3d40670eb3c2f49e38cafc9a96d8ba3ff8dd2cf1044cded5485838343604051610a3c93929190612044565b60405180910390a17fb7bc84a8dff11bcd1bbcbd04c2d9723be3328d320c0f09d9b30a6d5b0688274c83333385604051610a79949392919061207b565b60405180910390a1505050565b60006060806060806000606060008060008a815260200190815260200160002090508060050160009054906101000a900473ffffffffffffffffffffffffffffffffffffffff1673ffffffffffffffffffffffffffffffffffffffff163373ffffffffffffffffffffffffffffffffffffffff1614610b3a576040517f08c379a0000000000000000000000000000000000000000000000000000000008152600401610b3190612132565b60405180910390fd5b806000015481600101826002018360030184600401856008015486600901858054610b6490611adc565b80601f0160208091040260200160405190810160405280929190818152602001828054610b9090611adc565b8015610bdd5780601f10610bb257610100808354040283529160200191610bdd565b820191906000526020600020905b815481529060010190602001808311610bc057829003601f168201915b50505050509550848054610bf090611adc565b80601f0160208091040260200160405190810160405280929190818152602001828054610c1c90611adc565b8015610c695780601f10610c3e57610100808354040283529160200191610c69565b820191906000526020600020905b815481529060010190602001808311610c4c57829003601f168201915b50505050509450838054610c7c90611adc565b80601f0160208091040260200160405190810160405280929190818152602001828054610ca890611adc565b8015610cf55780601f10610cca57610100808354040283529160200191610cf5565b820191906000526020600020905b815481529060010190602001808311610cd857829003601f168201915b50505050509350828054610d0890611adc565b80601f0160208091040260200160405190810160405280929190818152602001828054610d3490611adc565b8015610d815780601f10610d5657610100808354040283529160200191610d81565b820191906000526020600020905b815481529060010190602001808311610d6457829003601f168201915b5050505050925080805480602002602001604051908101604052809291908181526020016000905b82821015610e55578382906000526020600020018054610dc890611adc565b80601f0160208091040260200160405190810160405280929190818152602001828054610df490611adc565b8015610e415780601f10610e1657610100808354040283529160200191610e41565b820191906000526020600020905b815481529060010190602001808311610e2457829003601f168201915b505050505081526020019060010190610da9565b505050509050975097509750975097509750975050919395979092949650565b600080600083815260200190815260200160002090508060050160009054906101000a900473ffffffffffffffffffffffffffffffffffffffff1673ffffffffffffffffffffffffffffffffffffffff163373ffffffffffffffffffffffffffffffffffffffff1614610f1d576040517f08c379a0000000000000000000000000000000000000000000000000000000008152600401610f14906121c4565b60405180910390fd5b60018160070160006101000a81548160ff0219169083151502179055507f6196b5a3e49e3b84c16fbc89f00fb1f25fdf80b1cf2f5e7a7b36e10136b85dac82604051610f699190611321565b60405180910390a15050565b600080600060018054610f8891906121e4565b8152602001908152602001600020600b0154905090565b60606000806000858152602001908152602001600020905080600801548310610ffd576040517f08c379a0000000000000000000000000000000000000000000000000000000008152600401610ff490611a8d565b60405180910390fd5b80600901838154811061101357611012612218565b5b90600052602060002001805461102890611adc565b80601f016020809104026020016040519081016040528092919081815260200182805461105490611adc565b80156110a15780601f10611076576101008083540402835291602001916110a1565b820191906000526020600020905b81548152906001019060200180831161108457829003601f168201915b505050505091505092915050565b8280548282559060005260206000209081019282156110f7579160200282015b828111156110f65782518290816110e69190611d4b565b50916020019190600101906110cf565b5b5090506111049190611108565b5090565b5b80821115611128576000818161111f919061112c565b50600101611109565b5090565b50805461113890611adc565b6000825580601f1061114a5750611169565b601f016020900490600052602060002090810190611168919061116c565b5b50565b5b8082111561118557600081600090555060010161116d565b5090565b6000604051905090565b600080fd5b600080fd5b6000819050919050565b6111b08161119d565b81146111bb57600080fd5b50565b6000813590506111cd816111a7565b92915050565b6000602082840312156111e9576111e8611193565b5b60006111f7848285016111be565b91505092915050565b600081519050919050565b600082825260208201905092915050565b6000819050602082019050919050565b600073ffffffffffffffffffffffffffffffffffffffff82169050919050565b60006112578261122c565b9050919050565b6112678161124c565b82525050565b6000611279838361125e565b60208301905092915050565b6000602082019050919050565b600061129d82611200565b6112a7818561120b565b93506112b28361121c565b8060005b838110156112e35781516112ca888261126d565b97506112d583611285565b9250506001810190506112b6565b5085935050505092915050565b6000602082019050818103600083015261130a8184611292565b905092915050565b61131b8161119d565b82525050565b60006020820190506113366000830184611312565b92915050565b60008060006060848603121561135557611354611193565b5b6000611363868287016111be565b9350506020611374868287016111be565b9250506040611385868287016111be565b9150509250925092565b60008115159050919050565b6113a48161138f565b82525050565b60006020820190506113bf600083018461139b565b92915050565b600081519050919050565b600082825260208201905092915050565b60005b838110156113ff5780820151818401526020810190506113e4565b60008484015250505050565b6000601f19601f8301169050919050565b6000611427826113c5565b61143181856113d0565b93506114418185602086016113e1565b61144a8161140b565b840191505092915050565b61145e8161124c565b82525050565b60006101208201905061147a600083018c611312565b818103602083015261148c818b61141c565b905081810360408301526114a0818a61141c565b905081810360608301526114b4818961141c565b905081810360808301526114c8818861141c565b90506114d760a0830187611455565b6114e460c083018661139b565b6114f160e0830185611312565b6114ff610100830184611312565b9a9950505050505050505050565b600080fd5b600080fd5b7f4e487b7100000000000000000000000000000000000000000000000000000000600052604160045260246000fd5b61154f8261140b565b810181811067ffffffffffffffff8211171561156e5761156d611517565b5b80604052505050565b6000611581611189565b905061158d8282611546565b919050565b600067ffffffffffffffff8211156115ad576115ac611517565b5b6115b68261140b565b9050602081019050919050565b82818337600083830152505050565b60006115e56115e084611592565b611577565b90508281526020810184848401111561160157611600611512565b5b61160c8482856115c3565b509392505050565b600082601f8301126116295761162861150d565b5b81356116398482602086016115d2565b91505092915050565b600067ffffffffffffffff82111561165d5761165c611517565b5b602082029050602081019050919050565b600080fd5b600061168661168184611642565b611577565b905080838252602082019050602084028301858111156116a9576116a861166e565b5b835b818110156116f057803567ffffffffffffffff8111156116ce576116cd61150d565b5b8086016116db8982611614565b855260208501945050506020810190506116ab565b5050509392505050565b600082601f83011261170f5761170e61150d565b5b813561171f848260208601611673565b91505092915050565b60008060008060008060c0878903121561174557611744611193565b5b600087013567ffffffffffffffff81111561176357611762611198565b5b61176f89828a01611614565b965050602087013567ffffffffffffffff8111156117905761178f611198565b5b61179c89828a01611614565b955050604087013567ffffffffffffffff8111156117bd576117bc611198565b5b6117c989828a01611614565b945050606087013567ffffffffffffffff8111156117ea576117e9611198565b5b6117f689828a01611614565b935050608061180789828a016111be565b92505060a087013567ffffffffffffffff81111561182857611827611198565b5b61183489828a016116fa565b9150509295509295509295565b6000806040838503121561185857611857611193565b5b6000611866858286016111be565b9250506020611877858286016111be565b9150509250929050565b600081519050919050565b600082825260208201905092915050565b6000819050602082019050919050565b600082825260208201905092915050565b60006118c9826113c5565b6118d381856118ad565b93506118e38185602086016113e1565b6118ec8161140b565b840191505092915050565b600061190383836118be565b905092915050565b6000602082019050919050565b600061192382611881565b61192d818561188c565b93508360208202850161193f8561189d565b8060005b8581101561197b578484038952815161195c85826118f7565b94506119678361190b565b925060208a01995050600181019050611943565b50829750879550505050505092915050565b600060e0820190506119a2600083018a611312565b81810360208301526119b4818961141c565b905081810360408301526119c8818861141c565b905081810360608301526119dc818761141c565b905081810360808301526119f0818661141c565b90506119ff60a0830185611312565b81810360c0830152611a118184611918565b905098975050505050505050565b60006020820190508181036000830152611a39818461141c565b905092915050565b7f496e76616c696420636865636b706f696e740000000000000000000000000000600082015250565b6000611a776012836113d0565b9150611a8282611a41565b602082019050919050565b60006020820190508181036000830152611aa681611a6a565b9050919050565b7f4e487b7100000000000000000000000000000000000000000000000000000000600052602260045260246000fd5b60006002820490506001821680611af457607f821691505b602082108103611b0757611b06611aad565b5b50919050565b7f4c6f636174696f6e73206c656e677468206d757374206d61746368206e756d6260008201527f6572206f6620636865636b706f696e7473000000000000000000000000000000602082015250565b6000611b696031836113d0565b9150611b7482611b0d565b604082019050919050565b60006020820190508181036000830152611b9881611b5c565b9050919050565b60008190508160005260206000209050919050565b60006020601f8301049050919050565b600082821b905092915050565b600060088302611c017fffffffffffffffffffffffffffffffffffffffffffffffffffffffffffffffff82611bc4565b611c0b8683611bc4565b95508019841693508086168417925050509392505050565b6000819050919050565b6000611c48611c43611c3e8461119d565b611c23565b61119d565b9050919050565b6000819050919050565b611c6283611c2d565b611c76611c6e82611c4f565b848454611bd1565b825550505050565b600090565b611c8b611c7e565b611c96818484611c59565b505050565b5b81811015611cba57611caf600082611c83565b600181019050611c9c565b5050565b601f821115611cff57611cd081611b9f565b611cd984611bb4565b81016020851015611ce8578190505b611cfc611cf485611bb4565b830182611c9b565b50505b505050565b600082821c905092915050565b6000611d2260001984600802611d04565b1980831691505092915050565b6000611d3b8383611d11565b9150826002028217905092915050565b611d54826113c5565b67ffffffffffffffff811115611d6d57611d6c611517565b5b611d778254611adc565b611d82828285611cbe565b600060209050601f831160018114611db55760008415611da3578287015190505b611dad8582611d2f565b865550611e15565b601f198416611dc386611b9f565b60005b82811015611deb57848901518255600182019150602085019450602081019050611dc6565b86831015611e085784890151611e04601f891682611d11565b8355505b6001600288020188555050505b505050505050565b6000819050919050565b611e38611e338261119d565b611e1d565b82525050565b60008160601b9050919050565b6000611e5682611e3e565b9050919050565b6000611e6882611e4b565b9050919050565b611e80611e7b8261124c565b611e5d565b82525050565b6000611e928286611e27565b602082019150611ea28285611e27565b602082019150611eb28284611e6f565b601482019150819050949350505050565b7f4e487b7100000000000000000000000000000000000000000000000000000000600052601260045260246000fd5b6000611efd8261119d565b9150611f088361119d565b925082611f1857611f17611ec3565b5b828206905092915050565b6000606082019050611f386000830186611312565b8181036020830152611f4a818561141c565b9050611f596040830184611455565b949350505050565b7f4e487b7100000000000000000000000000000000000000000000000000000000600052601160045260246000fd5b6000611f9b8261119d565b91507fffffffffffffffffffffffffffffffffffffffffffffffffffffffffffffffff8203611fcd57611fcc611f61565b5b600182019050919050565b7f43616e6e6f74207472616e736665722061206c6f73742070617263656c000000600082015250565b600061200e601d836113d0565b915061201982611fd8565b602082019050919050565b6000602082019050818103600083015261203d81612001565b9050919050565b60006060820190506120596000830186611312565b6120666020830185611312565b6120736040830184611312565b949350505050565b60006080820190506120906000830187611312565b61209d6020830186611455565b6120aa6040830185611455565b6120b76060830184611312565b95945050505050565b7f4f6e6c79207468652063757272656e74206f776e65722063616e20766965772060008201527f7468652070617263656c2064657461696c730000000000000000000000000000602082015250565b600061211c6032836113d0565b9150612127826120c0565b604082019050919050565b6000602082019050818103600083015261214b8161210f565b9050919050565b7f4f6e6c792063757272656e74206f776e65722063616e207265706f727420706160008201527f7263656c206c6f73740000000000000000000000000000000000000000000000602082015250565b60006121ae6029836113d0565b91506121b982612152565b604082019050919050565b600060208201905081810360008301526121dd816121a1565b9050919050565b60006121ef8261119d565b91506121fa8361119d565b925082820390508181111561221257612211611f61565b5b92915050565b7f4e487b7100000000000000000000000000000000000000000000000000000000600052603260045260246000fdfea2646970667358221220c061c6dea908d2f837c7a52d9da69899bceddb60ad216d2f546cad56717a98ec64736f6c63430008130033",
  "immutableReferences": {},
  "source": "// SPDX-License-Identifier: MIT\r\npragma solidity ^0.8.19;\r\n\r\ncontract SupplyChain {\r\n    struct Parcel {\r\n        uint256 id;\r\n        string name;\r\n        string description;\r\n        string location;\r\n        string service;\r\n        address currentOwner;\r\n        address[] trackingHistory;\r\n        bool isLost;\r\n        uint256 checkpointCount;\r\n        string[] allLocations;\r\n        mapping(uint256 => bool) checkpoints; // Checkpoint completion status\r\n        uint code;\r\n    }\r\n\r\n    mapping(uint256 => Parcel) public parcels;\r\n    uint256 public nextParcelId;\r\n\r\n    event ParcelRegistered(uint256 parcelId, string name, address owner);\r\n    event CheckpointCompleted(uint256 parcelId, uint256 checkpoint, uint256 blockNumber);\r\n    event ParcelTransferred(uint256 parcelId, address from, address to, uint256 checkpoint);\r\n    event ParcelLost(uint256 parcelId);\r\n\r\n    function registerParcel(\r\n        string memory name,\r\n        string memory description,\r\n        string memory location,\r\n        string memory service,\r\n        uint256 numCheckpoints,\r\n        string[] memory locations\r\n    ) public {\r\n        require(locations.length == numCheckpoints, \"Locations length must match number of checkpoints\");\r\n\r\n        Parcel storage newParcel = parcels[nextParcelId];\r\n        newParcel.id = nextParcelId;\r\n        newParcel.name = name;\r\n        newParcel.description = description;\r\n        newParcel.location = location;\r\n        newParcel.service = service;\r\n        newParcel.currentOwner = msg.sender;\r\n        newParcel.trackingHistory.push(msg.sender);\r\n        newParcel.isLost = false;\r\n        newParcel.checkpointCount = numCheckpoints;\r\n        newParcel.allLocations = locations;\r\n        newParcel.code = uint(keccak256(abi.encodePacked(block.timestamp, block.prevrandao, msg.sender))) % 10000; // Generates a random number between 0 and 9999\r\n\r\n        emit ParcelRegistered(nextParcelId, name, msg.sender);\r\n        nextParcelId++;\r\n    }\r\n\r\n    function transferParcel(\r\n        uint256 parcelId,\r\n        uint256 checkpoint\r\n        // uint256 code\r\n    ) public {\r\n        Parcel storage parcel = parcels[parcelId];\r\n        require(!parcel.isLost, \"Cannot transfer a lost parcel\");\r\n        require(checkpoint > 0 && checkpoint <= parcel.checkpointCount, \"Invalid checkpoint\");\r\n        // require(parcel.code == code, \"Invalid code\");\r\n\r\n        // Update checkpoint\r\n        parcel.checkpoints[checkpoint] = true;\r\n        parcel.trackingHistory.push(msg.sender);\r\n        parcel.currentOwner = msg.sender;\r\n\r\n        // Emit checkpoint completion event with block number and code\r\n        emit CheckpointCompleted(parcelId, checkpoint, block.number);\r\n        emit ParcelTransferred(parcelId, msg.sender, msg.sender, checkpoint);\r\n    }\r\n\r\n    function reportParcelLost(uint256 parcelId) public {\r\n        Parcel storage parcel = parcels[parcelId];\r\n        require(msg.sender == parcel.currentOwner, \"Only current owner can report parcel lost\");\r\n\r\n        parcel.isLost = true;\r\n\r\n        emit ParcelLost(parcelId);\r\n    }\r\n\r\n    function verifyCheckpoint(uint256 parcelId, uint256 checkpoint, uint256 id) public view returns (bool) {\r\n        Parcel storage parcel = parcels[parcelId];\r\n        require(checkpoint <= parcel.checkpointCount, \"Invalid checkpoint\");\r\n\r\n        // Check if the checkpoint is completed and id matches\r\n        return parcel.checkpoints[checkpoint] && parcel.id == id;\r\n    }\r\n\r\n    function getParcelHistory(uint256 parcelId) public view returns (address[] memory) {\r\n        return parcels[parcelId].trackingHistory;\r\n    }\r\n\r\n    function getParcelDetails(uint256 parcelId) public view returns (\r\n        uint256 id,\r\n        string memory name,\r\n        string memory description,\r\n        string memory location,\r\n        string memory service,\r\n        uint256 checkpointCount,\r\n        string[] memory allLocations\r\n    ) {\r\n        Parcel storage parcel = parcels[parcelId];\r\n        require(msg.sender == parcel.currentOwner, \"Only the current owner can view the parcel details\");\r\n\r\n        return (\r\n            parcel.id,\r\n            parcel.name,\r\n            parcel.description,\r\n            parcel.location,\r\n            parcel.service,\r\n            parcel.checkpointCount,\r\n            parcel.allLocations\r\n        );\r\n    }\r\n\r\n    function getNextLocation(uint256 parcelId, uint256 checkpoint) public view returns (string memory) {\r\n        Parcel storage parcel = parcels[parcelId];\r\n        require(checkpoint < parcel.checkpointCount, \"Invalid checkpoint\");\r\n\r\n        return parcel.allLocations[checkpoint];\r\n    }\r\n\r\n    function getParcelCount() public view returns (uint256 ) {\r\n        return nextParcelId;\r\n    }\r\n\r\n    function getCode() public view returns (uint256) {\r\n        return parcels[nextParcelId-1].code;\r\n    }\r\n}\r\n",
  "sourcePath": "D:\\R\\web dev vs coding\\my-supply-chain\\contracts\\SupplyChain.sol",
  "compiler": {
    "name": "solc",
    "version": "0.8.19+commit.7dd6d404.Emscripten.clang"
  },
  "schemaVersion": "3.4.16",
  "updatedAt": "2024-07-25T18:14:13.884Z",
  "networkType": "ethereum",
  "devdoc": {
    "kind": "dev",
    "methods": {},
    "version": 1
  },
  "userdoc": {
    "kind": "user",
    "methods": {},
    "version": 1
  }
}