{
  "contractName": "SupplyChain",
  "abi": [
    {
      "anonymous": false,
      "inputs": [
        {
          "indexed": false,
          "internalType": "uint256",
          "name": "parcelId",
          "type": "uint256"
        },
        {
          "indexed": false,
          "internalType": "uint256",
          "name": "checkpoint",
          "type": "uint256"
        },
        {
          "indexed": false,
          "internalType": "uint256",
          "name": "blockNumber",
          "type": "uint256"
        },
        {
          "indexed": false,
          "internalType": "uint256",
          "name": "id",
          "type": "uint256"
        }
      ],
      "name": "CheckpointCompleted",
      "type": "event"
    },
    {
      "anonymous": false,
      "inputs": [
        {
          "indexed": false,
          "internalType": "uint256",
          "name": "parcelId",
          "type": "uint256"
        }
      ],
      "name": "ParcelLost",
      "type": "event"
    },
    {
      "anonymous": false,
      "inputs": [
        {
          "indexed": false,
          "internalType": "uint256",
          "name": "parcelId",
          "type": "uint256"
        },
        {
          "indexed": false,
          "internalType": "string",
          "name": "name",
          "type": "string"
        },
        {
          "indexed": false,
          "internalType": "address",
          "name": "owner",
          "type": "address"
        }
      ],
      "name": "ParcelRegistered",
      "type": "event"
    },
    {
      "anonymous": false,
      "inputs": [
        {
          "indexed": false,
          "internalType": "uint256",
          "name": "parcelId",
          "type": "uint256"
        },
        {
          "indexed": false,
          "internalType": "address",
          "name": "from",
          "type": "address"
        },
        {
          "indexed": false,
          "internalType": "address",
          "name": "to",
          "type": "address"
        },
        {
          "indexed": false,
          "internalType": "uint256",
          "name": "checkpoint",
          "type": "uint256"
        }
      ],
      "name": "ParcelTransferred",
      "type": "event"
    },
    {
      "inputs": [],
      "name": "nextParcelId",
      "outputs": [
        {
          "internalType": "uint256",
          "name": "",
          "type": "uint256"
        }
      ],
      "stateMutability": "view",
      "type": "function",
      "constant": true
    },
    {
      "inputs": [
        {
          "internalType": "uint256",
          "name": "",
          "type": "uint256"
        }
      ],
      "name": "parcels",
      "outputs": [
        {
          "internalType": "uint256",
          "name": "id",
          "type": "uint256"
        },
        {
          "internalType": "string",
          "name": "name",
          "type": "string"
        },
        {
          "internalType": "string",
          "name": "description",
          "type": "string"
        },
        {
          "internalType": "string",
          "name": "location",
          "type": "string"
        },
        {
          "internalType": "string",
          "name": "service",
          "type": "string"
        },
        {
          "internalType": "address",
          "name": "currentOwner",
          "type": "address"
        },
        {
          "internalType": "bool",
          "name": "isLost",
          "type": "bool"
        },
        {
          "internalType": "uint256",
          "name": "checkpointCount",
          "type": "uint256"
        }
      ],
      "stateMutability": "view",
      "type": "function",
      "constant": true
    },
    {
      "inputs": [
        {
          "internalType": "string",
          "name": "name",
          "type": "string"
        },
        {
          "internalType": "string",
          "name": "description",
          "type": "string"
        },
        {
          "internalType": "string",
          "name": "location",
          "type": "string"
        },
        {
          "internalType": "string",
          "name": "service",
          "type": "string"
        },
        {
          "internalType": "uint256",
          "name": "numCheckpoints",
          "type": "uint256"
        },
        {
          "internalType": "string[]",
          "name": "locations",
          "type": "string[]"
        }
      ],
      "name": "registerParcel",
      "outputs": [],
      "stateMutability": "nonpayable",
      "type": "function"
    },
    {
      "inputs": [
        {
          "internalType": "uint256",
          "name": "parcelId",
          "type": "uint256"
        },
        {
          "internalType": "uint256",
          "name": "checkpoint",
          "type": "uint256"
        },
        {
          "internalType": "uint256",
          "name": "id",
          "type": "uint256"
        }
      ],
      "name": "transferParcel",
      "outputs": [],
      "stateMutability": "nonpayable",
      "type": "function"
    },
    {
      "inputs": [
        {
          "internalType": "uint256",
          "name": "parcelId",
          "type": "uint256"
        }
      ],
      "name": "reportParcelLost",
      "outputs": [],
      "stateMutability": "nonpayable",
      "type": "function"
    },
    {
      "inputs": [
        {
          "internalType": "uint256",
          "name": "parcelId",
          "type": "uint256"
        },
        {
          "internalType": "uint256",
          "name": "checkpoint",
          "type": "uint256"
        },
        {
          "internalType": "uint256",
          "name": "id",
          "type": "uint256"
        }
      ],
      "name": "verifyCheckpoint",
      "outputs": [
        {
          "internalType": "bool",
          "name": "",
          "type": "bool"
        }
      ],
      "stateMutability": "view",
      "type": "function",
      "constant": true
    },
    {
      "inputs": [
        {
          "internalType": "uint256",
          "name": "parcelId",
          "type": "uint256"
        }
      ],
      "name": "getParcelHistory",
      "outputs": [
        {
          "internalType": "address[]",
          "name": "",
          "type": "address[]"
        }
      ],
      "stateMutability": "view",
      "type": "function",
      "constant": true
    },
    {
      "inputs": [
        {
          "internalType": "uint256",
          "name": "parcelId",
          "type": "uint256"
        }
      ],
      "name": "getParcelDetails",
      "outputs": [
        {
          "internalType": "uint256",
          "name": "id",
          "type": "uint256"
        },
        {
          "internalType": "string",
          "name": "name",
          "type": "string"
        },
        {
          "internalType": "string",
          "name": "description",
          "type": "string"
        },
        {
          "internalType": "string",
          "name": "location",
          "type": "string"
        },
        {
          "internalType": "string",
          "name": "service",
          "type": "string"
        },
        {
          "internalType": "uint256",
          "name": "checkpointCount",
          "type": "uint256"
        },
        {
          "internalType": "string[]",
          "name": "allLocations",
          "type": "string[]"
        }
      ],
      "stateMutability": "view",
      "type": "function",
      "constant": true
    },
    {
      "inputs": [
        {
          "internalType": "uint256",
          "name": "parcelId",
          "type": "uint256"
        },
        {
          "internalType": "uint256",
          "name": "checkpoint",
          "type": "uint256"
        }
      ],
      "name": "getNextLocation",
      "outputs": [
        {
          "internalType": "string",
          "name": "",
          "type": "string"
        }
      ],
      "stateMutability": "view",
      "type": "function",
      "constant": true
    },
    {
      "inputs": [],
      "name": "getParcelCount",
      "outputs": [
        {
          "internalType": "uint256",
          "name": "",
          "type": "uint256"
        }
      ],
      "stateMutability": "view",
      "type": "function",
      "constant": true
    }
  ],
  "bytecode": "0x608060405234801561001057600080fd5b50612303806100206000396000f3fe608060405234801561001057600080fd5b506004361061009e5760003560e01c8063a0fa8ede11610066578063a0fa8ede1461015b578063a72eca0914610192578063d66715d6146101ae578063e10c3254146101e4578063f3b8f90c146102005761009e565b806339108982146100a357806352a7494d146100d357806370b195da146100f1578063950c71d81461010d5780639e42cfd21461012b575b600080fd5b6100bd60048036038101906100b89190611249565b610230565b6040516100ca9190611366565b60405180910390f35b6100db6102d3565b6040516100e89190611397565b60405180910390f35b61010b600480360381019061010691906113b2565b6102dd565b005b6101156105c6565b6040516101229190611397565b60405180910390f35b610145600480360381019061014091906113b2565b6105cc565b6040516101529190611420565b60405180910390f35b61017560048036038101906101709190611249565b610666565b6040516101899897969594939291906114da565b60405180910390f35b6101ac60048036038101906101a7919061178f565b6108fb565b005b6101c860048036038101906101c39190611249565b610af3565b6040516101db97969594939291906119b4565b60405180910390f35b6101fe60048036038101906101f99190611249565b610ee2565b005b61021a60048036038101906102159190611a46565b610fe2565b6040516102279190611a86565b60405180910390f35b60606000808381526020019081526020016000206006018054806020026020016040519081016040528092919081815260200182805480156102c757602002820191906000526020600020905b8160009054906101000a900473ffffffffffffffffffffffffffffffffffffffff1673ffffffffffffffffffffffffffffffffffffffff168152602001906001019080831161027d575b50505050509050919050565b6000600154905090565b600080600085815260200190815260200160002090508060050160009054906101000a900473ffffffffffffffffffffffffffffffffffffffff1673ffffffffffffffffffffffffffffffffffffffff163373ffffffffffffffffffffffffffffffffffffffff1614610385576040517f08c379a000000000000000000000000000000000000000000000000000000000815260040161037c90611b1a565b60405180910390fd5b8060070160009054906101000a900460ff16156103d7576040517f08c379a00000000000000000000000000000000000000000000000000000000081526004016103ce90611b86565b60405180910390fd5b6000831180156103eb575080600801548311155b61042a576040517f08c379a000000000000000000000000000000000000000000000000000000000815260040161042190611bf2565b60405180910390fd5b81816000015414610470576040517f08c379a000000000000000000000000000000000000000000000000000000000815260040161046790611c5e565b60405180910390fd5b600181600a01600085815260200190815260200160002060006101000a81548160ff02191690831515021790555080600601339080600181540180825580915050600190039060005260206000200160009091909190916101000a81548173ffffffffffffffffffffffffffffffffffffffff021916908373ffffffffffffffffffffffffffffffffffffffff160217905550338160050160006101000a81548173ffffffffffffffffffffffffffffffffffffffff021916908373ffffffffffffffffffffffffffffffffffffffff1602179055507fe3899829df44a7bdbdb8c0d2b96dd7517186f72117b2a6fdea7f0569d2d66a858484438560405161057b9493929190611c7e565b60405180910390a17fb7bc84a8dff11bcd1bbcbd04c2d9723be3328d320c0f09d9b30a6d5b0688274c843333866040516105b89493929190611cc3565b60405180910390a150505050565b60015481565b6000806000808681526020019081526020016000209050806008015484111561062a576040517f08c379a000000000000000000000000000000000000000000000000000000000815260040161062190611bf2565b60405180910390fd5b80600a01600085815260200190815260200160002060009054906101000a900460ff16801561065c5750828160000154145b9150509392505050565b600060205280600052604060002060009150905080600001549080600101805461068f90611d37565b80601f01602080910402602001604051908101604052809291908181526020018280546106bb90611d37565b80156107085780601f106106dd57610100808354040283529160200191610708565b820191906000526020600020905b8154815290600101906020018083116106eb57829003601f168201915b50505050509080600201805461071d90611d37565b80601f016020809104026020016040519081016040528092919081815260200182805461074990611d37565b80156107965780601f1061076b57610100808354040283529160200191610796565b820191906000526020600020905b81548152906001019060200180831161077957829003601f168201915b5050505050908060030180546107ab90611d37565b80601f01602080910402602001604051908101604052809291908181526020018280546107d790611d37565b80156108245780601f106107f957610100808354040283529160200191610824565b820191906000526020600020905b81548152906001019060200180831161080757829003601f168201915b50505050509080600401805461083990611d37565b80601f016020809104026020016040519081016040528092919081815260200182805461086590611d37565b80156108b25780601f10610887576101008083540402835291602001916108b2565b820191906000526020600020905b81548152906001019060200180831161089557829003601f168201915b5050505050908060050160009054906101000a900473ffffffffffffffffffffffffffffffffffffffff16908060070160009054906101000a900460ff16908060080154905088565b8181511461093e576040517f08c379a000000000000000000000000000000000000000000000000000000000815260040161093590611dda565b60405180910390fd5b60008060006001548152602001908152602001600020905061095e6110f2565b8160000181905550868160010190816109779190611fa6565b50858160020190816109899190611fa6565b508481600301908161099b9190611fa6565b50838160040190816109ad9190611fa6565b50338160050160006101000a81548173ffffffffffffffffffffffffffffffffffffffff021916908373ffffffffffffffffffffffffffffffffffffffff16021790555080600601339080600181540180825580915050600190039060005260206000200160009091909190916101000a81548173ffffffffffffffffffffffffffffffffffffffff021916908373ffffffffffffffffffffffffffffffffffffffff16021790555060008160070160006101000a81548160ff02191690831515021790555082816008018190555081816009019080519060200190610a94929190611125565b507fe1f789bdc940834eb233dd246835f12cc939d8dc0149a8591045425c026e19a86001548833604051610aca93929190612078565b60405180910390a160016000815480929190610ae5906120e5565b919050555050505050505050565b60006060806060806000606060008060008a815260200190815260200160002090508060050160009054906101000a900473ffffffffffffffffffffffffffffffffffffffff1673ffffffffffffffffffffffffffffffffffffffff163373ffffffffffffffffffffffffffffffffffffffff1614610ba7576040517f08c379a0000000000000000000000000000000000000000000000000000000008152600401610b9e9061219f565b60405180910390fd5b806000015481600101826002018360030184600401856008015486600901858054610bd190611d37565b80601f0160208091040260200160405190810160405280929190818152602001828054610bfd90611d37565b8015610c4a5780601f10610c1f57610100808354040283529160200191610c4a565b820191906000526020600020905b815481529060010190602001808311610c2d57829003601f168201915b50505050509550848054610c5d90611d37565b80601f0160208091040260200160405190810160405280929190818152602001828054610c8990611d37565b8015610cd65780601f10610cab57610100808354040283529160200191610cd6565b820191906000526020600020905b815481529060010190602001808311610cb957829003601f168201915b50505050509450838054610ce990611d37565b80601f0160208091040260200160405190810160405280929190818152602001828054610d1590611d37565b8015610d625780601f10610d3757610100808354040283529160200191610d62565b820191906000526020600020905b815481529060010190602001808311610d4557829003601f168201915b50505050509350828054610d7590611d37565b80601f0160208091040260200160405190810160405280929190818152602001828054610da190611d37565b8015610dee5780601f10610dc357610100808354040283529160200191610dee565b820191906000526020600020905b815481529060010190602001808311610dd157829003601f168201915b5050505050925080805480602002602001604051908101604052809291908181526020016000905b82821015610ec2578382906000526020600020018054610e3590611d37565b80601f0160208091040260200160405190810160405280929190818152602001828054610e6190611d37565b8015610eae5780601f10610e8357610100808354040283529160200191610eae565b820191906000526020600020905b815481529060010190602001808311610e9157829003601f168201915b505050505081526020019060010190610e16565b505050509050975097509750975097509750975050919395979092949650565b600080600083815260200190815260200160002090508060050160009054906101000a900473ffffffffffffffffffffffffffffffffffffffff1673ffffffffffffffffffffffffffffffffffffffff163373ffffffffffffffffffffffffffffffffffffffff1614610f8a576040517f08c379a0000000000000000000000000000000000000000000000000000000008152600401610f8190612231565b60405180910390fd5b60018160070160006101000a81548160ff0219169083151502179055507f6196b5a3e49e3b84c16fbc89f00fb1f25fdf80b1cf2f5e7a7b36e10136b85dac82604051610fd69190611397565b60405180910390a15050565b60606000806000858152602001908152602001600020905080600801548310611040576040517f08c379a000000000000000000000000000000000000000000000000000000000815260040161103790611bf2565b60405180910390fd5b80600901838154811061105657611055612251565b5b90600052602060002001805461106b90611d37565b80601f016020809104026020016040519081016040528092919081815260200182805461109790611d37565b80156110e45780601f106110b9576101008083540402835291602001916110e4565b820191906000526020600020905b8154815290600101906020018083116110c757829003601f168201915b505050505091505092915050565b600042446040516020016111079291906122a1565b6040516020818303038152906040528051906020012060001c905090565b82805482825590600052602060002090810192821561116d579160200282015b8281111561116c57825182908161115c9190611fa6565b5091602001919060010190611145565b5b50905061117a919061117e565b5090565b5b8082111561119e576000818161119591906111a2565b5060010161117f565b5090565b5080546111ae90611d37565b6000825580601f106111c057506111df565b601f0160209004906000526020600020908101906111de91906111e2565b5b50565b5b808211156111fb5760008160009055506001016111e3565b5090565b6000604051905090565b600080fd5b600080fd5b6000819050919050565b61122681611213565b811461123157600080fd5b50565b6000813590506112438161121d565b92915050565b60006020828403121561125f5761125e611209565b5b600061126d84828501611234565b91505092915050565b600081519050919050565b600082825260208201905092915050565b6000819050602082019050919050565b600073ffffffffffffffffffffffffffffffffffffffff82169050919050565b60006112cd826112a2565b9050919050565b6112dd816112c2565b82525050565b60006112ef83836112d4565b60208301905092915050565b6000602082019050919050565b600061131382611276565b61131d8185611281565b935061132883611292565b8060005b8381101561135957815161134088826112e3565b975061134b836112fb565b92505060018101905061132c565b5085935050505092915050565b600060208201905081810360008301526113808184611308565b905092915050565b61139181611213565b82525050565b60006020820190506113ac6000830184611388565b92915050565b6000806000606084860312156113cb576113ca611209565b5b60006113d986828701611234565b93505060206113ea86828701611234565b92505060406113fb86828701611234565b9150509250925092565b60008115159050919050565b61141a81611405565b82525050565b60006020820190506114356000830184611411565b92915050565b600081519050919050565b600082825260208201905092915050565b60005b8381101561147557808201518184015260208101905061145a565b60008484015250505050565b6000601f19601f8301169050919050565b600061149d8261143b565b6114a78185611446565b93506114b7818560208601611457565b6114c081611481565b840191505092915050565b6114d4816112c2565b82525050565b6000610100820190506114f0600083018b611388565b8181036020830152611502818a611492565b905081810360408301526115168189611492565b9050818103606083015261152a8188611492565b9050818103608083015261153e8187611492565b905061154d60a08301866114cb565b61155a60c0830185611411565b61156760e0830184611388565b9998505050505050505050565b600080fd5b600080fd5b7f4e487b7100000000000000000000000000000000000000000000000000000000600052604160045260246000fd5b6115b682611481565b810181811067ffffffffffffffff821117156115d5576115d461157e565b5b80604052505050565b60006115e86111ff565b90506115f482826115ad565b919050565b600067ffffffffffffffff8211156116145761161361157e565b5b61161d82611481565b9050602081019050919050565b82818337600083830152505050565b600061164c611647846115f9565b6115de565b90508281526020810184848401111561166857611667611579565b5b61167384828561162a565b509392505050565b600082601f8301126116905761168f611574565b5b81356116a0848260208601611639565b91505092915050565b600067ffffffffffffffff8211156116c4576116c361157e565b5b602082029050602081019050919050565b600080fd5b60006116ed6116e8846116a9565b6115de565b905080838252602082019050602084028301858111156117105761170f6116d5565b5b835b8181101561175757803567ffffffffffffffff81111561173557611734611574565b5b808601611742898261167b565b85526020850194505050602081019050611712565b5050509392505050565b600082601f83011261177657611775611574565b5b81356117868482602086016116da565b91505092915050565b60008060008060008060c087890312156117ac576117ab611209565b5b600087013567ffffffffffffffff8111156117ca576117c961120e565b5b6117d689828a0161167b565b965050602087013567ffffffffffffffff8111156117f7576117f661120e565b5b61180389828a0161167b565b955050604087013567ffffffffffffffff8111156118245761182361120e565b5b61183089828a0161167b565b945050606087013567ffffffffffffffff8111156118515761185061120e565b5b61185d89828a0161167b565b935050608061186e89828a01611234565b92505060a087013567ffffffffffffffff81111561188f5761188e61120e565b5b61189b89828a01611761565b9150509295509295509295565b600081519050919050565b600082825260208201905092915050565b6000819050602082019050919050565b600082825260208201905092915050565b60006118f08261143b565b6118fa81856118d4565b935061190a818560208601611457565b61191381611481565b840191505092915050565b600061192a83836118e5565b905092915050565b6000602082019050919050565b600061194a826118a8565b61195481856118b3565b935083602082028501611966856118c4565b8060005b858110156119a25784840389528151611983858261191e565b945061198e83611932565b925060208a0199505060018101905061196a565b50829750879550505050505092915050565b600060e0820190506119c9600083018a611388565b81810360208301526119db8189611492565b905081810360408301526119ef8188611492565b90508181036060830152611a038187611492565b90508181036080830152611a178186611492565b9050611a2660a0830185611388565b81810360c0830152611a38818461193f565b905098975050505050505050565b60008060408385031215611a5d57611a5c611209565b5b6000611a6b85828601611234565b9250506020611a7c85828601611234565b9150509250929050565b60006020820190508181036000830152611aa08184611492565b905092915050565b7f4f6e6c792063757272656e74206f776e65722063616e207472616e736665722060008201527f70617263656c0000000000000000000000000000000000000000000000000000602082015250565b6000611b04602683611446565b9150611b0f82611aa8565b604082019050919050565b60006020820190508181036000830152611b3381611af7565b9050919050565b7f43616e6e6f74207472616e736665722061206c6f73742070617263656c000000600082015250565b6000611b70601d83611446565b9150611b7b82611b3a565b602082019050919050565b60006020820190508181036000830152611b9f81611b63565b9050919050565b7f496e76616c696420636865636b706f696e740000000000000000000000000000600082015250565b6000611bdc601283611446565b9150611be782611ba6565b602082019050919050565b60006020820190508181036000830152611c0b81611bcf565b9050919050565b7f496e76616c696420696400000000000000000000000000000000000000000000600082015250565b6000611c48600a83611446565b9150611c5382611c12565b602082019050919050565b60006020820190508181036000830152611c7781611c3b565b9050919050565b6000608082019050611c936000830187611388565b611ca06020830186611388565b611cad6040830185611388565b611cba6060830184611388565b95945050505050565b6000608082019050611cd86000830187611388565b611ce560208301866114cb565b611cf260408301856114cb565b611cff6060830184611388565b95945050505050565b7f4e487b7100000000000000000000000000000000000000000000000000000000600052602260045260246000fd5b60006002820490506001821680611d4f57607f821691505b602082108103611d6257611d61611d08565b5b50919050565b7f4c6f636174696f6e73206c656e677468206d757374206d61746368206e756d6260008201527f6572206f6620636865636b706f696e7473000000000000000000000000000000602082015250565b6000611dc4603183611446565b9150611dcf82611d68565b604082019050919050565b60006020820190508181036000830152611df381611db7565b9050919050565b60008190508160005260206000209050919050565b60006020601f8301049050919050565b600082821b905092915050565b600060088302611e5c7fffffffffffffffffffffffffffffffffffffffffffffffffffffffffffffffff82611e1f565b611e668683611e1f565b95508019841693508086168417925050509392505050565b6000819050919050565b6000611ea3611e9e611e9984611213565b611e7e565b611213565b9050919050565b6000819050919050565b611ebd83611e88565b611ed1611ec982611eaa565b848454611e2c565b825550505050565b600090565b611ee6611ed9565b611ef1818484611eb4565b505050565b5b81811015611f1557611f0a600082611ede565b600181019050611ef7565b5050565b601f821115611f5a57611f2b81611dfa565b611f3484611e0f565b81016020851015611f43578190505b611f57611f4f85611e0f565b830182611ef6565b50505b505050565b600082821c905092915050565b6000611f7d60001984600802611f5f565b1980831691505092915050565b6000611f968383611f6c565b9150826002028217905092915050565b611faf8261143b565b67ffffffffffffffff811115611fc857611fc761157e565b5b611fd28254611d37565b611fdd828285611f19565b600060209050601f8311600181146120105760008415611ffe578287015190505b6120088582611f8a565b865550612070565b601f19841661201e86611dfa565b60005b8281101561204657848901518255600182019150602085019450602081019050612021565b86831015612063578489015161205f601f891682611f6c565b8355505b6001600288020188555050505b505050505050565b600060608201905061208d6000830186611388565b818103602083015261209f8185611492565b90506120ae60408301846114cb565b949350505050565b7f4e487b7100000000000000000000000000000000000000000000000000000000600052601160045260246000fd5b60006120f082611213565b91507fffffffffffffffffffffffffffffffffffffffffffffffffffffffffffffffff8203612122576121216120b6565b5b600182019050919050565b7f4f6e6c79207468652063757272656e74206f776e65722063616e20766965772060008201527f7468652070617263656c2064657461696c730000000000000000000000000000602082015250565b6000612189603283611446565b91506121948261212d565b604082019050919050565b600060208201905081810360008301526121b88161217c565b9050919050565b7f4f6e6c792063757272656e74206f776e65722063616e207265706f727420706160008201527f7263656c206c6f73740000000000000000000000000000000000000000000000602082015250565b600061221b602983611446565b9150612226826121bf565b604082019050919050565b6000602082019050818103600083015261224a8161220e565b9050919050565b7f4e487b7100000000000000000000000000000000000000000000000000000000600052603260045260246000fd5b6000819050919050565b61229b61229682611213565b612280565b82525050565b60006122ad828561228a565b6020820191506122bd828461228a565b602082019150819050939250505056fea26469706673582212203ea951c5b789e0ef2e0486a1fdfcd6f9ef68222eb9902210c0352b1f6f2981fc64736f6c63430008130033",
  "immutableReferences": {},
  "source": "// SPDX-License-Identifier: MIT\r\npragma solidity ^0.8.19;\r\n\r\ncontract SupplyChain {\r\n    struct Parcel {\r\n        uint256 id;\r\n        string name;\r\n        string description;\r\n        string location;\r\n        string service;\r\n        address currentOwner;\r\n        address[] trackingHistory;\r\n        bool isLost;\r\n        uint256 checkpointCount;\r\n        string[] allLocations;\r\n        mapping(uint256 => bool) checkpoints; // Checkpoint completion status\r\n    }\r\n\r\n    mapping(uint256 => Parcel) public parcels;\r\n    uint256 public nextParcelId;\r\n\r\n    event ParcelRegistered(uint256 parcelId, string name, address owner);\r\n    event CheckpointCompleted(uint256 parcelId, uint256 checkpoint, uint256 blockNumber, uint256 id);\r\n    event ParcelTransferred(uint256 parcelId, address from, address to, uint256 checkpoint);\r\n    event ParcelLost(uint256 parcelId);\r\n\r\n    function getRandomNumber() private view returns (uint) {\r\n        return uint(keccak256(abi.encodePacked(block.timestamp, block.prevrandao)));\r\n    }\r\n    function registerParcel(\r\n        string memory name,\r\n        string memory description,\r\n        string memory location,\r\n        string memory service,\r\n        uint256 numCheckpoints,\r\n        string[] memory locations\r\n    ) public {\r\n        require(locations.length == numCheckpoints, \"Locations length must match number of checkpoints\");\r\n\r\n        Parcel storage newParcel = parcels[nextParcelId];\r\n        newParcel.id = getRandomNumber();\r\n        newParcel.name = name;\r\n        newParcel.description = description;\r\n\r\n        newParcel.location = location;\r\n        newParcel.service = service;\r\n        newParcel.currentOwner = msg.sender;\r\n        newParcel.trackingHistory.push(msg.sender);\r\n        newParcel.isLost = false;\r\n        newParcel.checkpointCount = numCheckpoints;\r\n        newParcel.allLocations = locations;\r\n\r\n        emit ParcelRegistered(nextParcelId, name, msg.sender);\r\n        nextParcelId++;\r\n    }\r\n\r\n    function transferParcel(\r\n        uint256 parcelId,\r\n        uint256 checkpoint,\r\n        uint256 id\r\n    ) public {\r\n        Parcel storage parcel = parcels[parcelId];\r\n        require(msg.sender == parcel.currentOwner, \"Only current owner can transfer parcel\");\r\n        require(!parcel.isLost, \"Cannot transfer a lost parcel\");\r\n        require(checkpoint > 0 && checkpoint <= parcel.checkpointCount, \"Invalid checkpoint\");\r\n        require(parcel.id == id, \"Invalid id\");\r\n\r\n        // Update checkpoint\r\n        parcel.checkpoints[checkpoint] = true;\r\n        parcel.trackingHistory.push(msg.sender);\r\n        parcel.currentOwner = msg.sender; // Update current owner to msg.sender, adjust as necessary\r\n\r\n        // Emit checkpoint completion event with block number and id\r\n        emit CheckpointCompleted(parcelId, checkpoint, block.number, id);\r\n        emit ParcelTransferred(parcelId, msg.sender, msg.sender, checkpoint); // Adjust emit as needed\r\n    }\r\n\r\n    function reportParcelLost(uint256 parcelId) public {\r\n        Parcel storage parcel = parcels[parcelId];\r\n        require(msg.sender == parcel.currentOwner, \"Only current owner can report parcel lost\");\r\n\r\n        parcel.isLost = true;\r\n\r\n        emit ParcelLost(parcelId);\r\n    }\r\n\r\n    function verifyCheckpoint(uint256 parcelId, uint256 checkpoint, uint256 id) public view returns (bool) {\r\n        Parcel storage parcel = parcels[parcelId];\r\n        require(checkpoint <= parcel.checkpointCount, \"Invalid checkpoint\");\r\n\r\n        // Check if the checkpoint is completed and id matches\r\n        return parcel.checkpoints[checkpoint] && parcel.id == id;\r\n    }\r\n\r\n    function getParcelHistory(uint256 parcelId) public view returns (address[] memory) {\r\n        return parcels[parcelId].trackingHistory;\r\n    }\r\n\r\n    function getParcelDetails(uint256 parcelId) public view returns (\r\n        uint256 id,\r\n        string memory name,\r\n        string memory description,\r\n        string memory location,\r\n        string memory service,\r\n        uint256 checkpointCount,\r\n        string[] memory allLocations\r\n    ) {\r\n        Parcel storage parcel = parcels[parcelId];\r\n        require(msg.sender == parcel.currentOwner, \"Only the current owner can view the parcel details\");\r\n\r\n        return (\r\n            parcel.id,\r\n            parcel.name,\r\n            parcel.description,\r\n            parcel.location,\r\n            parcel.service,\r\n            parcel.checkpointCount,\r\n            parcel.allLocations\r\n        );\r\n    }\r\n\r\n    function getNextLocation(uint256 parcelId, uint256 checkpoint) public view returns (string memory) {\r\n        Parcel storage parcel = parcels[parcelId];\r\n        require(checkpoint < parcel.checkpointCount, \"Invalid checkpoint\");\r\n\r\n        return parcel.allLocations[checkpoint];\r\n    }\r\n\r\n     function getParcelCount() public view returns (uint256) {\r\n        return nextParcelId;\r\n    }\r\n\r\n \r\n}\r\n",
  "sourcePath": "D:\\R\\web dev vs coding\\NEXT\\my-supply-chain\\contracts\\SupplyChain.sol",
  "compiler": {
    "name": "solc",
    "version": "0.8.19+commit.7dd6d404.Emscripten.clang"
  },
  "schemaVersion": "3.4.16",
  "updatedAt": "2024-07-24T09:52:52.954Z",
  "networkType": "ethereum",
  "devdoc": {
    "kind": "dev",
    "methods": {},
    "version": 1
  },
  "userdoc": {
    "kind": "user",
    "methods": {},
    "version": 1
  }
}